:100000000C944A0D0C94720D0C94720D0C94720D9C
:100010000C94720D0C94720D0C94720D0C94720D64
:100020000C94720D0C94720D0C94720D0C94720D54
:100030000C94720D0C94720D0C94720D0C94720D44
:100040000C9438240C94720D0C94720D0C94720D57
:100050000C94720D0C94720D0C94720D0C94720D24
:100060000C9419230C94720D4E414E494E4954592B
:10007000494E46CDCCCC3D0AD7233C17B7D1387773
:10008000CC2B329595E6241FB14F0A000020410089
:1000900000C84200401C4620BCBE4CCA1B0E5AAED3
:1000A000C59D745F02040304050104050E1600FBE0
:1000B00010FC11FC031A06BD20096E8F7FFCFF1F88
:1000C0000221106E8F2F61D9FDF7B0B2A4B4F2787F
:1000D0000222166E8F1F751373137313731373132A
:1000E0007313F3F8FF080023276E8F7F98113919D7
:1000F00039913991A18392832A114111B91139198A
:10010000A9039A032A91391141114111793C242400
:100110006E8FB7D9C9B303A18989A889B989414B21
:100120005343C389B989199109A183A983C8D9798E
:100130005C0025256E8F7F90A19992998935134691
:10014000165314B3B2A3B3670752122242263322C6
:100150006A464C86E8710C26246E8F7F184AC38944
:10016000B1913991B909C9CAD1429111911993211B
:100170009AA12192A28BA112791C03270C6E8F37B2
:10018000E1D9BDC7FF570028156E8FCF58CAD15986
:10019000D959D9FD78767896DB79100029196E8FB8
:1001A0007F08E159E2B5C3B3C3C2B36B8565676528
:1001B0004757D28A022A1A6E8F7F5CCCAE1B919869
:1001C0003920ABAC949893119B198B8AC7C7002B2D
:1001D000116E8F7F5CCC6E7740734037BB7B7C0E9B
:1001E0002C106E8F7FFC3F9325A59D959D958703D1
:1001F0002D0E6E8F7FFCF260E8601EFF2B002E0E2E
:100200006E8F7FFC3F9325A595C70D002F196E8F2C
:100210004FE1D1D9D1D959D959D959D959D959D960
:100220005961799C0130246E8F7F20C2BB09AA9945
:1002300029219A999A999A1189990991999A999A41
:10024000A16DA648C62EE9F100310F6E8F7FA8C9B7
:10025000BAC390D9FDDFE30132176E8F7F20C283CE
:100260002812AAA8D94DF7ADECC1D0C13C8E0133FC
:100270001C6E8F7F18C2833099E159D9C1CA5A6266
:10028000E1D9A9282992B1C37ABC00341D6E8F7FB1
:1002900038D9519685128312732263236332530730
:1002A000340794B3DBE31C00351E6E8F7F8803A9EF
:1002B00003A9D9B5770761236451C2B38BA48448DD
:1002C000A80E02EBF100361B6E8F7F28C23312316D
:1002D000D915730752245343FB95D0D4C8DC213D74
:1002E0001E37186E8F7F8883A18359D9A5B3B3B207
:1002F000B3B26B65D7CAE30D0038216E8F7F98C209
:10030000B3112AA1AD66A628060B25C88456094D4F
:10031000CD4C09D14C1D04D6E301391E6E8F7F20D0
:10032000C2BB91A921A9A13D22A13A103B885D2B16
:1003300026427510488F17003A126E8F7F3C972522
:10034000A595C7A12C29AD3C6E003B126E8F7F7C1A
:100350002D4B4A2B8F67A4B46B4507013C136E8F5E
:100360007FA4B193751D9212D3763B1C8FB7003DCD
:10037000126E8F7FDC1ED01CD063704073408F7F65
:10038000073E136E8F7FF0E8D9DE52D63524AC9C41
:100390008DC767003F186E8FA7C2B39929C5B3B246
:1003A000A36B65E791CA92D2CAE3050040266E8F1F
:1003B0007FA0C2B399A1A91919939193899115327C
:1003C00023362313232B0E62266E8669E20EE2EC9F
:1003D000710D41226E8F7FA860E1D951D24A09C1C7
:1003E000893919B119B103A903A1A999A919399199
:1003F000B979DC0242266E8F7F8083B083A1AD661F
:10040000A66686860EA40EA46688A666A666A6665E
:10041000A66686860E860EE2F100431B6E8F7FA0D5
:10042000C2B311A2A919B1A0D93D169E9222993A40
:1004300008ACC7390044236E8F7F80BB03A919A283
:10044000AD66A666A666A666A666A666A666A68427
:10045000B6993A90BAC70B0045196E8F7F80039A00
:10046000039AD9DD1E481D48CDEEF680E6801EC7F2
:100470000046156E8F7F8883A183A1D96D0FA40ECE
:10048000A466F77B3C0247206E8F7FA0C283A81131
:10049000A22921D9DD98CC988CCD88CD4C0DCD10DA
:1004A0001DC8D5E31C0048286E8F7F80A999A999A3
:1004B000A999A999A999A999A999039A039AA99976
:1004C000A999A999A999A999A999A9791C03491345
:1004D0006E8F7F8803A903C1D9FD0F0FA40EE471AD
:1004E0000D4A156E8F7F9883B083C8D9FDB320B1B4
:1004F00091B14B7A3C014B246E8F7F80A999A13535
:100500005333622372137386861382137323633308
:1005100053335343AB66A6E8710B4C106E8F7F8844
:10052000D9FDBF3D183A98C731004D296E8F7F0025
:10053000B991B191291222129A922E244626284668
:10054000264696882C1B191B191B191B191B199B56
:10055000C72D004E296E8F7F80A999A919A219A2D3
:10056000999A999A152233136B462466466C666AEB
:10057000666A8668A666A666C6E4710C4F246E8F0E
:100580007F20C283B011A2456223632363236323C8
:100590006323632363336233434324540781F47832
:1005A000501D6E8F7F8083B083A1219AA999A9994C
:1005B000A999A99983A103A9D97D8F570051286EC4
:1005C0008F7F20C283B011A245622363236323631C
:1005D0002363236323632363335342AB0EE24C85CF
:1005E000672DEB210052266E8F7F8083B003A9A177
:1005F0005542533353428B0E860EC246C666C466BE
:10060000A686A48656094DCDE31800531E6E8F7F33
:10061000A0BA832812A2A9A8D9615AD3E261E1192C
:1006200031A119A203397B9C0354106E8F7F808304
:100630009283B2D9FDBFC70B0055266E8F7F80A96C
:1006400099A999A999A999A999A999A999A999A99A
:1006500099A999A999A999A92192A903B97A3C566E
:10066000236E8F7F00B91139993121A92129A92140
:1006700031993119B91141894109C952D2D96179E8
:10068000BC00572E6E8FF741119920111925322287
:100690003222233222143213143213118A281451B5
:1006A00050914CCD4CCD4C0D89098945C9E31A00B8
:1006B00058246E8F7F80A92129A9993119B98941C0
:1006C00009C9D2D9D14A89B9893999A92129A999C0
:1006D00031791C0359186E8FF7B119B19929455317
:1006E00033722273139295B4FB3D5E005A1B6E8FDA
:1006F0007F8883A18359D959D9D159D9D1D9D1B5B5
:10070000A3073407F438065B126E8F9F83B083B063
:10071000D9FD7F7B1076108F015C186E8F1761E119
:1007200061E161E161E161E1D9E1D9E1D961F59886
:10073000035D116E8F9F83B083D8FDFFEC20EC200A
:100740001E035E146E8F7F28D9594A09C189391951
:10075000B12179FC3F025F0E6E8F7FFCFFF541C92E
:10076000413D380060116E8FA7E86861E1D9E16111
:10077000D5F1F85F02611E6E8F7F9C171E44CD0C71
:10078000CF4E1D081DCC4CCD4CCD90141D4C55CCDE
:10079000E3180062206E8F8FD9BD203B9022219AF2
:1007A0009A999A999A999A999A999AA1193A90929A
:1007B000A8C70363196E8F7F3CA83B882221120BC8
:1007C0009ADD782A8A64EC20B01EE70064226E8FDE
:1007D000CFD99D514C1D08CDD04CCD4CCD4CCD4CDE
:1007E000CD4CCD4C0DCD501D8851CCE31800651C6F
:1007F0006E8F7F9C171E44CD0C4DCD1CD01CD0CCD1
:100800002E8BA2993A88B3C7390066166E8FB7C28D
:10081000B31931A9A8D9C903A903B9D9FD3DDE008F
:1008200067226E8F7F9C930C1DCC8C50096D3542D6
:100830007667277C20762024453236424374207622
:100840000F0368126E8F97D9BD203B90AA20DAFF64
:100850007F8F630069126E8FAFD9F5C80C6DF78773
:10086000076107F138076A156E8FBFD9F5A8EE6EDC
:10087000F79F054D8D8C1D04D283016B1C6E8F97E5
:10088000D93D5A33353236316768383137323633ED
:100890003543B4D53C6E016C106E8F1743DBFD3FC2
:1008A0003C903A90C735006D2B6E8F7FDC5AD01C80
:1008B000D04C50C84C8CC84C8CC84C8CC84C8CC884
:1008C0004C8CC84C8CC84C8CC84C8CC84C8CC8E325
:1008D00018006E126E8F7F1C4F901D485510EDFF53
:1008E000BFC731006F1E6E8F7F3C203C8822219253
:1008F0009A1993191B191B1993991A22A13A88ABBB
:10090000C70370226E8F7FDC4E901D4891104DCD35
:100910004CCD4CCD4CCD4CCD4CCDD00C1D484D903C
:10092000CD6E0F0971226E8F7F9C57481D08CDD068
:100930004CCD4CCD4CCD4CCD4CCD4C0D91501D885B
:1009400051CCEE1E020072136E8F7F1C4F541D0C93
:1009500095481145CDEEF77804731A6E8F7F9C177A
:100960001E44CD4C0D49D1DAD64E85CDD04C1DC894
:10097000D5E30174176E8F7FA05961C903A90341A4
:1009800061B53B1E913BACC7630075136E8F7FDC76
:100990000EEDFF1F91501D8851CCE31A00761C6E9E
:1009A0008F7FDC8E0989094D09AD12121B99131135
:1009B0009C102C251D96C70B0077256E8F7F9C0AF7
:1009C0008AC8281991115922233222234122232136
:1009D00041544135423542353335238F7300781DFC
:1009E0006E8F7FDC4E0DCD8CC9C84D0C96CE8E1609
:1009F0004ECCC94C0D094DCDE31800791E6E8F7F8A
:100A0000DC8E0989096D2426243622282268494A69
:100A10003A2C3B173268480F087A166E8F7FDC1E1F
:100A20000C1D8CCECA8E6EABF680E6801EC7007B96
:100A3000176E8F7FA842BBD9DD4A56120F0BCFEE3F
:100A400096D6B21E04007C0B6E8FAFD9FDFFDF433C
:100A5000017D166E8F7F904ADBE1D91D57568ECEF1
:100A6000EEE9A0613D14007E106E8F7F5C13C51C03
:100A700010C5D4E3FF11000000F4113600102AA0C5
:100A80000000A0FF0062007F102BB00000B0FF004C
:100A900062009F102C7000F410101028F500F41163
:100AA0003680113680102AA00000A0FF00A00000B0
:100AB000A0FF00102BB00000B0FF0062009F102CC0
:100AC0007000F4113640113640102AA00000A0FF3B
:100AD0000062007F102BB80100B0FF0062009F1081
:100AE0002C7000F4113600102AA00000A0FF00A016
:100AF0000000A0FF00102BB00000B0FF0062009FBC
:100B0000102C7000F4113600102AA00000A0FF0085
:100B100062007F102BB00000B0FF0062009F102C1D
:100B20007000FDF1F58005F08005F18032F41011C0
:100B3000800A10131020113A061029113600142AC9
:100B40000000007F142B0000009F102CF500000017
:100B50000000240027002A000000000023002600D7
:100B60002900000000080002010000030407000043
:100B70000000000000000102040810204080010273
:100B800004081020010204081020000000002500C5
:100B900028002B00040404040404040402020202DA
:100BA0000202030303030303BF020402040501035B
:100BB000050A1100FC0AFD0CFE025304C920081AA4
:100BC000433FFF2B00210D1A43BBD087C97A9050B9
:100BD0004F0E220E1A43B34424114952923C7F0314
:100BE000231D1A437B24168945520ACD60208AC4EE
:100BF00022A1C140138945629194424F0E241A1AD2
:100C000043576E2052C422B1484C915B0A77895CED
:100C100022371A08F34400251D1A43EF2811B1C8E2
:100C2000444A14A1453258B25144329188221349A2
:100C300088F6B400261D1A43F74C9292A414B233DE
:100C40004566109124348A842811D18806833C2D6E
:100C500000270A1A43BBD030CF5F0128101A433F48
:100C600024E750986C29549AE6710029101A43AF72
:100C700054A94C0A7D18D4C9F460002A121A43BB47
:100C80003097488824C15C4216C9F30D002B0D1A19
:100C9000433FCBCE060355B29E012C0C1A433FBFF7
:100CA000142A83C23C002D0A1A433FEF067BDE0163
:100CB0002E0A1A433FBF14EAC9012F141A433F26D4
:100CC0001814068541615018140685793400301CCB
:100CD0001A43F72025D1883222894822928824227B
:100CE0008948220A4954833C3500310E1A43BB6AB5
:100CF000A0EC5F0D067A5A0032111A43F3209A14C1
:100D00001A76280C0E0679620033111A43F3402933
:100D1000348C4D85CAA0D1204F0E34171A433F4062
:100D2000A84BC414B1484A92CA848A06035DB29E95
:100D30001A35111A43F36024341C240DDDA90679F9
:100D4000720036191A43FB20154C0615A389462458
:100D50001149449A9046A21AE4A90137121A43F3A2
:100D600060100C0A83C2A0306827D4B30038191A67
:100D700043F720A5091569428BD84C31CA1849445C
:100D80009A506A90A70639181A43F7209531CA88F5
:100D90003222894823192D8441616A9027073A0C31
:100DA0001A433F4BA19E8D504F0E3B0E1A433F4BB3
:100DB000A19E8D501914E6013C0D1A433FEB9CCCCB
:100DC0006E6A9AA7053D0E1A433FB783811E3718F6
:100DD000E8B9003E0D1A433FB3A8E56E6697670376
:100DE0003F121A43EF6014D2A492419D61508F11BB
:100DF000EA19401E1A43F720A50945069188A44D1B
:100E0000A4445222A928A92851486C52833C350099
:100E100041181A433F916E979025549954463318C0
:100E2000645292944296A70542171A433FC560A4A4
:100E300031CAD80C541A23894822CA0CF6D400436C
:100E4000131A433FD140238A0885C9A450291DE8BD
:100E5000690144181A433FC560A43192882422894D
:100E600048229288241ACD604F0D45121A433FC97B
:100E700060946C3918252B07833C2D0046101A43CB
:100E80003FC9609049B61C8C92ED990047161A43F1
:100E90003FCD60238A08933583484A22D2180DF645
:100EA000B400481A1A433F852823CA8832A28C28E6
:100EB000331864441951469411E58901490F1A43C6
:100EC0003FC5601013FAABC1204F0C4A0E1A433FC6
:100ED000C940D90F55833C39004B181A433F852828
:100EE000A30949520AD520368829541291C6484F81
:100EF0000B4C0D1A433F49B2BF1C0CF2B4004D1D00
:100F00001A433F8548A29968129149229288242267
:100F10008992124989A42C12CBD3024E1A1A433F4C
:100F2000852823CA24321599929A8A4C4526A40909
:100F300069527962004F191A433FCD2015CAA42483
:100F400029852C218BA424294D2835C853035014FE
:100F50001A433FC96014D28434214D28345025DB14
:100F60003301511B1A433FCD2015CAA42429852CD7
:100F7000218BA424294D2835484AF3300052151AF4
:100F8000433FC560A4F19BD040251169421A233D1F
:100F90002D0053131A433FCD4054A38C2E97424942
:100FA0002A33D85303540B1A433FC12BA17F4F0E52
:100FB00055181A433F852823CA8832A28C2823CA91
:100FC0008832A21AD5204F0D56161A433F812C1293
:100FD0008B8824A24692582496900DF5E400571B66
:100FE0001A433F812C218B442425921249458524A4
:100FF00091D84C341391444F0C58171A433F8548ED
:10100000130A4962839C5097504934A2884A4F0B77
:1010100059121A433F452C22D2845291584227F448
:101020009E1C5A121A433FC560200CEA0C0B75C275
:10103000C1404F0B5B0D1A43F74025F47F38D0E3D6
:10104000005C131A436F529954269549655299547E
:1010500046F330005D0C1A43EF40D9FFD5408F04B2
:101060005E131A437B52B74BC822A98CA8469449F9
:10107000E9B9055F0A1A433F7F3A38C81360091A75
:10108000435334CF7F0461111A433FBB8152A81AE6
:1010900068FC6890D0D30262161A43AFD08BD12679
:1010A0002392882422894832D128F6D40063101A6A
:1010B000433FC3814818B44C2A077B5A0064171A6F
:1010C000433F24D96A11CA18654419514694311A0C
:1010D00024F2C40065151A433FC3414AA2116506B4
:1010E000038950290A0DF6B40066101A433F609038
:1010F0004A0665838148E8F70C67181A433FC345E1
:101100002863941165441951C66890480645033513
:101110000068161A43AFD08BD14423CA8832A28C00
:101120002823CA88F2C400690D1A43BB500F1D085A
:10113000FD3D39006A0F1A433F40A8870E84FE61C7
:101140006A20076B151A4373B21B51449590ED1238
:10115000B2882A230AE969016C0A1A43EF40D9FFD1
:101160009E1C6D181A433FB38462A29094484A248F
:101170002592124989A44492A7056E161A433F335B
:10118000C568A211654419514694116544796200FD
:101190006F151A433FC3412A6324494952129126CD
:1011A000A31AE4A90170171A433F33C56893114984
:1011B000441291442499681423A13D0471151A43E3
:1011C0003FC3452863941165441951C66890483659
:1011D0000672101A433F3BC96610C9883242EF5964
:1011E0000073111A433FC38128999C2E3321CD608F
:1011F0004F0D74101A433F8D503618A484BE1CE85E
:10120000690175171A433F335146941165441951CA
:10121000C62892080D1279620076111A433FB31264
:10122000513722492C121BEAC90177191A433F2B67
:10123000594222299154945424069144443311650F
:10124000F4C40078131A433F335148A21AE474BB24
:10125000842A63A4A70579161A433FB31291261472
:1012600092A822B1414E280CCAF608007A101A43FF
:101270003FB3C120A8F3303818E869017B131A4343
:101280003F60264C2685C29C34294C96EE71007C2A
:101290000A1A437BB2FFF750007D111A43F35268DC
:1012A000984C4A65C2A4D06C0F057E0D1A433FC707
:1012B000A2484452B3E718A0081A433FFF2B00A1ED
:1012C0000D1A433F4BA11E93AC14FA08A21B1A43FC
:1012D0003F20384825628A58241689456291982211
:1012E000A6080E72797200A3111A433F60966C37FC
:1012F000D0250B85C1C19E18A4151A433F452C3338
:10130000488432A95037A9412213CB7301A5171A7B
:1013100043AF2A22D2685291D820271BCC84B2C175
:101320004CA82707A60B1A437BB2F794BD8702A7E8
:10133000191A43F740244C2A67115546A4492972CB
:101340004B6528231AE88100A8091A438B24CF7F14
:101350000DA91F1A43F72015CAC422894122324A17
:101360005425AA22A348629088C432A1D4204F0DEC
:10137000AA121A43F34095890D5299542635D8F391
:101380003100AB141A433FCB482A22528814B2884A
:101390002C228BE4D901AC0C1A433FB78381B23DB8
:1013A0001700AD0A1A433FEF067BDE01AE151A4364
:1013B000F72095D1241699449BC42294510DF27CB8
:1013C00003AF0A1A43C3833CFF2900B00D1A43BB85
:1013D0002E914B04F5FC1100B1111A433FCBB2C161
:1013E0004095CC6307033D2D00B20D1A43F34059DD
:1013F000A70B0EF67C0CB30E1A43F340191B24AB5B
:10140000067ABE06B4091A43934ECF7F05B5171A64
:10141000433F335146941165441951C666A2519811
:1014200008ED2100B6221A43F3603388640691CC9C
:1014300020921944529258241689456291582416D4
:10144000894562913C0EB70A1A433F2F857ACE0137
:10145000B80A1A433F7F1E0DCA01B9091A43B7B231
:10146000F7FC00BA121A43F720951165441951464A
:1014700035C8F33500BB141A433FB34C2C228BA85C
:1014800024A2882822CAE45902BC1D1A43AB48137F
:10149000AA116552115524281145369184263158D8
:1014A000A424293D2D00BD1B1A43ABA89B5426152F
:1014B0008925848941469449454499504633C8D387
:1014C00002BE1E1A43EB205423D98424B1846690B3
:1014D0000846448A5122A1490C1622494A4F0BBFA3
:1014E000121A433F4BA11E1414E60C4519516830E3
:1014F00006C01A1A434F340FD2ED12B2842A93CA8F
:101500006806834C4A9252C8F2B400C11A1A439733
:101510004E8FD1ED12B2842A93CA6806834C4A9248
:1015200052C8F2B400C21B1A43CF4C9287E8760926
:1015300059429549653483412625492964795A00E1
:10154000C31C1A438F2215D14374BB842CA1CAA497
:10155000329AC1209392A414B23C2D00C41A1A43AB
:101560008B240FD6ED12B2842A93CA6806834C4AA4
:101570009252C8F2B400C51B1A43932E11B44BE427
:1015800012B2482A93CA6806834C4A9252C8F2B4EF
:1015900000C6191A433FD140A54BE41231452C3205
:1015A0008AA406AA4C4833C8D302C7151A433FD1B0
:1015B00040238A0885C9A450291DC8A2413500C806
:1015C000131A4353348F188C922D07A364E560904F
:1015D000A705C9131A43974E8F188C922D07A36441
:1015E000E56090A705CA131A43CF4C92071C255BF0
:1015F0000E46C9CAC1204F0BCB131A438B240F1DB3
:101600008C922D07A364E56090A705CC111A434F77
:10161000348F180C62427F3518E48901CD101A43CB
:10162000974E0F388809FDD560902706CE111A43D2
:10163000CF4C121F0C62427F3518E48901CF111A7A
:10164000438B248F1C0C62427F3518E48901D0182B
:101650001A433FC560A431928814838C44241149F5
:1016600044199BC19E1AD11C1A438F2215918B32AB
:10167000A24C22539129A9A9C85464429A90269554
:101680002706D21B1A434F348F19A442999424A5DC
:10169000902564919424A509A506796A00D31B1AA4
:1016A00043974E0F19A442999424A59025649194D0
:1016B00024A509A506796A00D41C1A43CF4C924789
:1016C0000C52A14C4A9252C812B2484A92D2845249
:1016D000833C3500D51C1A438F2215D12306A9500F
:1016E000262549296409592425496942A9419E1A98
:1016F000D61B1A438B248F1DA442999424A59025B0
:1017000064919424A509A506796A00D7131A433F6A
:10171000B312514812DBCD2421512696A705D81CBF
:101720001A433FCD2091C9D84C32838426D22692C9
:10173000C848369A8C2631C85303D91A1A434F34F5
:101740008F1065441951469411654419514654A3AC
:101750001AE4A901DA1A1A43974E0F106544195179
:10176000469411654419514654A31AE4A901DB1AA1
:101770001A43CF4C12176544195146941165441908
:10178000514654A31AE4A901DC1A1A438B248F147E
:1017900065441951469411654419514654A31AE4FD
:1017A000A901DD141A43974E0F8845449A502A1216
:1017B0004BE884DE9303DE161A433F49323918851D
:1017C00034214D48130A0D54C93C1300DF1C1A4341
:1017D000F3409549655211552496904562995448B5
:1017E00093CAA43289419E18E0131A4377340F1E1E
:1017F0002885AA81C68F06093D2D00E1131A433FB3
:1018000040A7C70E9442D540E34783849E16E21357
:101810001A43F72E92870E9442D540E34783849E65
:1018200016E3141A43B72215D143074AA16AA0F15F
:10183000A341424F0BE4131A433F3092870E944268
:10184000D540E34783849E16E5141A43932E11D4A2
:1018500063074AA16AA0F1A341424F0BE6181A435D
:101860003FB34142264949328341242292A822AA09
:10187000C5204F0BE7111A433FC3814818B44C2AC7
:1018800007AB68500EE8161A437B340F1EA4241AC7
:10189000516630900895A2D0604F0BE9171A433F6C
:1018A00040A7070F52128D28331848844A5168B058
:1018B000A705EA171A43F72E92C70E52128D283346
:1018C0001848844A5168B0A705EB171A433F329273
:1018D000870E52128D28331848844A5168B0A705E4
:1018E000EC0D1A437B340F1D08FD3D3900ED0D1A38
:1018F000433F40A7870E84FE9E1CEE0D1A43F72E31
:1019000092470E84FE9E1CEF0D1A433F3092470E05
:1019100084FE9E1CF0191A43EF22A71BA822B28155
:1019200028632411494412518D6A90A706F1191AAF
:1019300043B72215D12315A3894694116544195143
:10194000469411E58901F2161A4377348F1EA432AA
:101950004692942425116932AA419E1AF3171A431C
:101960003F40A7070F521923494A9292883419D54C
:10197000204F0DF4171A43F72E92C70E5219234920
:101980004A9292883419D5204F0DF5181A43B72280
:1019900015D16307A98C9124254949449A8C6A90F2
:1019A000A706F6171A433F3092C70E521923494A29
:1019B0009292883419D5204F0DF7101A433F4BA14E
:1019C0001E3A18E801423D3900F8181A433FC38116
:1019D0002863929064129212C94693D12406796AC0
:1019E00000F9181A4377348F15654419514694113C
:1019F000658C2289D020912706FA191A433F40A707
:101A0000878A32A28C2823CA88324691446890C8BB
:101A10001303FB191A43F72E92478A32A28C28230C
:101A2000CA88324691446890C81303FC191A433F90
:101A30003092478A32A28C2823CA88324691446861
:101A400090C81303FD191A433F40A787C622224DB1
:101A50002824514562839C501894ED1100FE181AF9
:101A600043AFD08BD1262392882422894832D128B3
:101A700046427B0800FF191A433F309247C6222294
:101A80004D2824514562839C501894ED11000000AC
:101A900082244B2B11241FBECFEFD8E0DEBFCDBF79
:101AA00011E0A0E0B1E0E8E7F3E602C005900D9296
:101AB000A634B107D9F727E0A6E4B1E001C01D9232
:101AC000AA37B207E1F71DE0C9E4DDE004C02197C1
:101AD000FE010E94A32FC834D107C9F70E945227E4
:101AE0000C94AF310C94000080579F4FFC01808113
:101AF000082E000C990B01960895E0917401F09165
:101B00007501309729F01092EB011092EA010994C7
:101B10000895CF93DF93AC01E0917201F0917301CE
:101B20003097F1F09091ED018091EC019817C0F0A1
:101B300090E0292F30E02617370754F4D901AE5A28
:101B4000BE4F240F351FE90128812C939F5FF1CFF1
:101B50001092ED016093EC01CB01DF91CF910994DC
:101B6000DF91CF910895E0918306F09184068091F2
:101B70007E0680FF0CC050E040E06BE070E08EE736
:101B800096E0099580917E068E7F80937E06E09197
:101B90008306F091840650E040E06AE070E08EE752
:101BA00096E00995009729F020917E062160209308
:101BB0007E06089581EE9DE09093E5068093E4060D
:101BC000089590E080E0089581E090E008952091EC
:101BD0009C01260F3327331F21323105ECF420916D
:101BE000C001FC0190E080E0243069F082E00895BB
:101BF000A0919C012191AC0144585E4FA40FB52FD8
:101C0000B11D2C930196861798F380919C01680F63
:101C100060939C0180E0089581E008950895E0912B
:101C2000ED018091EC01E81730F4F0E0EE5AFE4F40
:101C3000808190E008958FEF9FEF08959091ED01DE
:101C40008091EC012FEF3FEF981748F4E92FF0E077
:101C5000EE5AFE4F208130E09F5F9093ED01C90165
:101C600008958091EC019091ED01891B990B0895E5
:101C7000CF93DF93CB01EA01642F0E94E70DCE01E1
:101C8000DF91CF910895CF93DF931F92CDB7DEB749
:101C9000698361E0CE0101960E94E70D81E090E04A
:101CA0000F90DF91CF910895833081F028F4813037
:101CB00099F08230A9F008958730A9F08830C9F0F2
:101CC0008430B1F4809180008F7D03C080918000CA
:101CD0008F7780938000089584B58F7784BD0895B1
:101CE00084B58F7DFBCF8091B0008F778093B0005B
:101CF00008958091B0008F7DF9CFCF93DF93282F87
:101D000030E0F901EE59F44F8491F901EA58F44FAB
:101D1000D491F901EC56F44FC491CC23A1F0811178
:101D20000E94540EEC2FF0E0EE0FFF1FE85AF44F24
:101D3000A591B491EC91ED2381E090E009F480E06D
:101D4000DF91CF91089580E090E0FACF1F93CF9379
:101D5000DF93282F30E0F901EE59F44F8491F90117
:101D6000EA58F44FD491F901EC56F44FC491CC23C6
:101D7000A9F0162F81110E94540EEC2FF0E0EE0F07
:101D8000FF1FE657F44FA591B4918FB7F894EC91EB
:101D9000111108C0D095DE23DC938FBFDF91CF9166
:101DA0001F910895DE2BF8CFECEBF0E080818A7B69
:101DB000808360E082E10E94A60E60E083E10C94E3
:101DC000A60E1092C00181E08093C2011092C10161
:101DD00061E082E10E94A60E61E083E10E94A60E0E
:101DE000E9EBF0E080818E7F808380818D7F80832E
:101DF00088E48093B80085E48093BC000895CF9375
:101E0000C82F1092ED011092EC011092EB0110928C
:101E1000EA010E94E10E8DE79DE09093E701809337
:101E2000E60189E89DE09093E9018093E801CC0FF9
:101E3000C093BA00CF910895CF93DF9390E0FC0157
:101E4000EA58F44F24918C56944FFC0184918823D6
:101E5000C9F090E0880F991FFC01E25BF44FA59157
:101E6000B491FC01E657F44FC591D49161110DC0B6
:101E70009FB7F8948C91209582238C938881282396
:101E800028839FBFDF91CF910895623051F49FB7AF
:101E9000F8943C91822F809583238C93E8812E2B9C
:101EA000EFCF8FB7F894EC912E2B2C938FBFEACF06
:101EB0003FB7F89480914E0190914F01A09150014D
:101EC000B091510126B5A89B05C02F3F19F001968E
:101ED000A11DB11D3FBFBA2FA92F982F8827BC0184
:101EE000CD01620F711D811D911D42E0660F771FAC
:101EF000881F991F4A95D1F708958F929F92AF92AC
:101F0000BF92CF92DF92EF92FF924B015C010E9451
:101F1000580F6B017C010E94580F6C197D098E09C6
:101F20009F09683E734081059105A8F321E0821A5C
:101F30009108A108B10888EEC80E83E0D81EE11C04
:101F4000F11C81149104A104B10429F7FF90EF90D2
:101F5000DF90CF90BF90AF909F908F900895DC015D
:101F6000ED91FC910190F081E02D0994AF92BF9228
:101F7000CF92DF92EF92FF920F931F93CF93DF9355
:101F80006C017B018B01040F151FEB015E01AE1884
:101F9000BF08C017D10759F06991D601ED91FC91A6
:101FA0000190F081E02DC6010995892B79F7C501D3
:101FB000DF91CF911F910F91FF90EF90DF90CF9025
:101FC000BF90AF900895EF92FF920F931F93CF931E
:101FD000DF93DC01EA011996ED91FC911A976631C5
:101FE00071059CF4643171059CF46C307105D1F17C
:101FF0006F30710509F453C0AE01CD01DF91CF916F
:102000001F910F91FF90EF90099467317105A1F72F
:102010005C968D919C915D970296837099275D9651
:102020009C938E935C971D968D919C911E975596CF
:102030002D913C915697821B930B019756969C933A
:102040008E9355971B968D919C911C9753962D912D
:102050003C915497821B930B019754969C938E93BB
:102060005397CACF4C815D81288139811D968D910E
:102070009C911E97EE80FF800A811B818E199F091B
:10208000801B910B9B838A831B968D919C911C973F
:10209000841B950B821B930B99838883ADCF8A0198
:1020A000EC01AC01455F5F4F6FE070E009958B85F7
:1020B0009C85AD85BE85F80180839183A283B3831F
:1020C00081E090E0DF91CF911F910F91FF90EF9011
:1020D0000895213069F038F0223079F0840F911D95
:1020E00047FD9A950895860F911D67FD9A9508956D
:1020F000841B910947FD93950895861B910967FDFF
:1021000093950895213069F038F0223079F0861BDC
:10211000910967FD93950895840F911D47FD9A9548
:102120000895860F911D67FD9A950895841B910966
:1021300047FD93950895DC011A964C911A97ED91FD
:10214000FC911197249130E0042E02C0359527951B
:102150000A94E2F7842F860F883068F03196119642
:10216000FC93EE93E49198E0941B01C0EE0F9A95D6
:10217000EAF72E2B88501A968C938FEF9FEF01C0B1
:10218000880F6A95EAF7809582230895FC01E60F8F
:10219000F11D849190E0982F88273196E4918E0F5D
:1021A000911D0895CF92DF92EF92FF920F931F93AC
:1021B000CF93DF936C0124E6C20ED11CD6012D9182
:1021C0003C9111972617370709F49AC0EB017C015F
:1021D0006D937C93FB01849187010B581F4FD801AD
:1021E0008C933196E4911196EC931197FB01329602
:1021F000E4911296EC931297FB013396E4911396B7
:10220000EC931397FB013496E4911496EC93149796
:10221000FB013596E4911596EC931597FB013696E4
:10222000E4911696EC931697FB013796E491179676
:10223000EC931797FB013896E4911896EC93189756
:10224000FB013996E4911996EC931997FB013A96A4
:10225000E4911A96EC931A97FB013B96E4911B9636
:10226000EC931B97FB013C96E4911C96EC931C9716
:10227000FB013D96E4911D96EC931D97FB013E9664
:10228000E4911E96EC931E97FB013F96E4911F96F6
:10229000EC931F97FB017096E4915096EC9361E1EB
:1022A000CE010E94C610F801928B818B63E1CE01B2
:1022B0000E94C610D80154969C938E935397F601B2
:1022C00080819181892BE1F07E968081E701C05762
:1022D000DF4F8883319640815C964C933C96908189
:1022E000992371F09130A9F43B97908189170CF4F0
:1022F0009883F701EB57FF4F808184170CF48C9380
:10230000DF91CF911F910F91FF90EF90DF90CF90D1
:102310000895F701E158FF4F308132962081082E51
:10232000000C990B622F022E000C770B630F711DAE
:1023300037FD7A958617970714F4320F38832417E0
:10234000FCF62C93DDCFAC014D5E5F4FDC011596A2
:10235000ED91FC9165E170E00994FC0186A1878B09
:1023600087A1808F80A5818F148A138A768B658BD5
:10237000538F428F158E148ECF010C94A3115F9250
:102380006F927F928F929F92AF92BF92CF92DF9285
:10239000EF92FF920F931F93CF93DF93EC01F62EF2
:1023A000642E8C0108591F4FF8017680C780F80110
:1023B000D084D7185F2CDF1408F45D2CF8018480DA
:1023C0009580E4842E2D4C2D672D828193810E946F
:1023D00069105C012E2D4C2D672DC4010E948210C6
:1023E0006620D9F02EA12F8B2FA1288F28A5298F09
:1023F000BC8AAB8A9E8B8D8B852D90E09B8F8A8FBC
:102400002E2D30E03D8F2C8FCE010E94A311FD14A4
:1024100070F0FD18C394712CCACFF80123852111E7
:10242000F6CF29A52F8B2AA5288F2BA5E0CFF70C57
:10243000F801F682C782DF91CF911F910F91FF9033
:10244000EF90DF90CF90BF90AF909F908F907F9054
:102450006F905F900895CF93DF93CDB7DEB7289745
:102460000FB6F894DEBF0FBECDBFDC0111964D91C3
:102470005D916D917C9114974D835E836F83788716
:102480001A8219821C821B821596ED91FC91AE0175
:102490004F5F5F4F6CE070E0099528960FB6F89497
:1024A000DEBF0FBECDBFDF91CF910895CF93DF93F5
:1024B000EC01AC014F5F5F4FED81FE816FE070E09A
:1024C0000995CE01DF91CF910C942B1280917E065D
:1024D0008E7F80937E06109288061092870681E098
:1024E00090E090939F0680939E061092E3061092D0
:1024F000E2068093F106109244071092450710926D
:10250000460784EE9DE090938606809385068DECC9
:1025100092E1909384068093830610929006109225
:102520008F060E94DA0D0E94B30D8EE796E00E949E
:10253000561210924C0710924B0710924E071092B1
:102540004D0710924F07E0E1F7E08FEF819397E09E
:10255000ED31F907D9F70895CF93DF93EC01898521
:102560009A85009721F09E838D831A861986CE0165
:102570000E945612CE010E942B128D819E819A8755
:10258000898783EE9FE09E838D83CE010E94561241
:10259000CE01DF91CF910C942B126C30710551F06C
:1025A0006731710581F4DC011796ED91FC9167E1CB
:1025B00070E00994DC01A45ABF4F88E0FA01019051
:1025C0000D928A95E1F781E090E00895EF92FF92F5
:1025D0000F931F93CF93DF937C01EA018A01060FCB
:1025E000171FC017D10739F4DF91CF911F910F91B9
:1025F000FF90EF900895FE01449150E0D70151966D
:10260000ED91FC9130E020E060E170E0C7010995B8
:102610002196E7CFAB01DC015196ED91FC9130E0C2
:1026200020E06CE070E009940F931F93CF93DF9349
:102630008C01EB01209729F4DF91CF911F910F912D
:10264000089568EE73E0C8010E940A132197F2CF43
:10265000EF92FF920F931F93CF93C42F7C0136EC20
:10266000E30EF11CD7013C9134238C0109531F4F19
:10267000611122C0332329F0F8013081342334134F
:1026800015C0622F70E0DC015196ED91FC9130E0B5
:1026900020E050E040E009959C2F9095F801808162
:1026A00089238083D7018C91C82BCC93CF911F9124
:1026B0000F91FF90EF900895332321F0F8013081BE
:1026C0003423A1F7622F70E0DC015196ED91FC916B
:1026D00030E020E041E050E00995F80180818C2B4A
:1026E000E0CF2FE041E00C9428137F928F929F92CD
:1026F000AF92BF92CF92DF92EF92FF920F931F9310
:10270000CF93DF938C01EB014C0188EC880E911C78
:10271000FE016491E62EE2942FE0E222F62FFF7094
:102720007F2EEFEFEE0DEF3008F0D6C0F0E0E5566B
:10273000FC4E0C94A32FAA13AA13AA136C146C14A6
:10274000D413E91300140F141D1441146C146C14E9
:102750006C1453145E018FEFA81AB80AD4016C915F
:1027600066956170C8010E947113F12CA501B70133
:10277000C8010E94E612C72CD12C772069F0AE0C5C
:10278000BF1CF40160816170C8010E947113A50132
:10279000B601C8010E94E612FFEFEF1AFF0ACE0C45
:1027A000DF1CCC0DDD1DB4CFD4016C916170C8016C
:1027B0000E947113AE014F5F5F4FE72CF12CB70100
:1027C000C8010E94E612BFEFEB1AFB0ACE0DDF1D17
:1027D0009FCFF4016081669560956170C8010E9489
:1027E0007113E72CF12C772039F0AE014F5F5F4F6A
:1027F000B701C8010E94E612FFEFEF1AFF0AE6CF09
:10280000FE0131966491E72DF0E0FE2FEE276E0F6A
:102810007F2F711DC8010E941413229679CFFE01EB
:1028200031966491E72DF0E0FE2FEE276E0F7F2F9B
:10283000711DC8010E940A13F0CFFE013196F49079
:102840003196E4902396D4016C916170C8010E9486
:102850007113D8015396ED91FC91549702C0F595F0
:10286000E7957A94E2F7EF21EE294E2F50E051964A
:10287000ED91FC9130E020E060E170E0C801099545
:1028800047CFFE013196F4903196E4902396F401FF
:1028900060816170C8010E947113D8015596ED9155
:1028A000FC915697DBCF872D86958695813061F018
:1028B00020F0833069F021962BCF61702DE044E049
:1028C000C8010E942813F7CF61702EE042E0F8CFD4
:1028D0006370F4016083EFCFDF91CF911F910F916F
:1028E000FF90EF90DF90CF90BF90AF909F908F9030
:1028F0007F900895CF93DF93EC01A881B981A2174F
:10290000B307ACF4EB01E881F9814E175F077CF463
:10291000A417B5071CF4DC014D935C932E173F07F9
:102920001CF4EB013983288381E090E002C090E041
:1029300080E0DF91CF910895FC0125893689E25A24
:10294000FF4F40815181241B350B37FD0AC034965F
:1029500081E090E0408151812417350724F080E028
:10296000089580E090E00895FC0123893489E45AB9
:10297000FF4F40815181241B350B37FD0AC034962F
:1029800081E090E0408151812417350724F080E0F8
:10299000089580E090E008950F931F93CF93DF9305
:1029A00000D000D0CDB7DEB78C01FC01178E168E9B
:1029B000848D958D8130910509F484C034F4892B80
:1029C00009F440C081E090E044C08230910509F4F0
:1029D000AAC00397B9F7C8010E94B414892BB9F1B2
:1029E000F8018589968901969C838B83228D338D8E
:1029F000821B930B9A838983E25AFF4F4081518156
:102A0000349620813181240F351FBE016D5F7F4FC9
:102A1000CE0101960E947A14892BC9F08B819C818A
:102A200029813A81AC01421B530BF801538F428F2D
:102A3000019725893689281B390B378F268F968B6E
:102A4000858BC0CFC8010E949C14892B59F490E05B
:102A500080E00F900F900F900F90DF91CF911F911A
:102A60000F910895F801238934893A832983828D4F
:102A7000938D820F931F9C838B83E45AFF4F408179
:102A80005181349620813181240F351FBE016D5F45
:102A90007F4FCE0101960E947A14892BC1F22981C1
:102AA0003A81F80183899489A901481B590B578FF2
:102AB000468F348B238B8B819C81821B930B938F4E
:102AC000828F80CFC8010E94B414892B09F4BFCF34
:102AD000F801258936893A832983828D938D820F67
:102AE000931F9C838B83E25AFF4F40815181349620
:102AF00020813181240F351FBE016D5F7F4FCE01D4
:102B000001960E947A14892B09F4A1CF29813A8178
:102B1000F80185899689A901481B590B578F468F63
:102B2000368B258BC8CFC8010E949C14892B09F4D1
:102B30008ECFF8018389948901969C838B83228DA3
:102B4000338D821B930B9A838983E45AFF4F408114
:102B50005181349620813181240F351FBE016D5F74
:102B60007F4FCE0101960E947A14892B09F46FCF12
:102B70008B819C8129813A81AC01421B530BF80166
:102B8000538F428F019723893489281B390B378F44
:102B9000268F948B838B16CFEF92FF920F931F9308
:102BA000CF93DF9300D000D0CDB7DEB76F30710583
:102BB00009F489C08C01603171055CF46A307105DB
:102BC000C9F16B30710509F477C0C8010E94CD12BC
:102BD00068C06431710509F483C065317105A9F7D6
:102BE0000E94CC14892B09F46BC0D8015C968D919E
:102BF0009C918130910509F49BC08230910509F4C4
:102C0000ACC064E07BE0892B09F494C0F801E5884E
:102C1000F6888FE990E08E199F09968B858B6EE977
:102C20007AE0C8010E947513D8015696FC92EE9284
:102C3000559783C084E690E09A83898382E490E08C
:102C40009C838B83D8015196ED91FC917801B7EC70
:102C5000EB0EF11CD7018C9183FF08C030E020E01F
:102C600050E040E06BE070E0C8010995F701808119
:102C7000877F8083F801EA53FF4F1082D801519675
:102C8000ED91FC919E012F5F3F4F50E040E06AE0E4
:102C900070E0C8010995009721F0F70120812860B4
:102CA00020830F900F900F900F90DF91CF911F9185
:102CB0000F91FF90EF90089567E97AE00E947513F5
:102CC00081E090E0EECF80E890E0DA0111969C93ED
:102CD0008E9380EA90E013969C938E931297F0CF98
:102CE0000E94B414892B61F3C8010E949C14892BA3
:102CF00039F369E77AE0C8010E947513F801878902
:102D00008983808D8A83818D8B830188F289E02D70
:102D10009E012F5F3F4F41E050E063E170E0C8014A
:102D200009952EE042E061E0C8010E942813C8CF57
:102D300063EE7AE0C8010E947513F80187898983E0
:102D4000808D8A83818D8B83428D538D0188F2899A
:102D5000E02D9E012F5F3F4FE0CFF801E388F4881C
:102D60008FE790E08E199F09948B838B62EC7AE059
:102D7000C8010E947513D8015496FC92EE925397A5
:102D8000DCCFCF93DF936B307105B9F06F307105F5
:102D9000D1F06A30710599F4EC016AE070E00E94AC
:102DA000CC15009739F062E27BE0CE010E947513EA
:102DB00081E090E0DF91CF9108956BE070E0DF91CA
:102DC000CF910C94CC1580E890E0FA019183808338
:102DD00080EA90E093838283EBCFFC01208186819F
:102DE000280F20838485958542855385840F951F00
:102DF0009587848740855185841795073CF03281FB
:102E0000230F2083841B950B9587848708952F9229
:102E10003F924F925F926F927F928F929F92AF926A
:102E2000BF92CF92DF92EF92FF920F931F93CF93B7
:102E3000DF9300D01F92CDB7DEB7FC01673171057B
:102E400009F0DBC0828D938D6C0121E0C21AD1089C
:102E50002601D7FC2C01559447945F0186E2A80E09
:102E6000B11C7F011F01AAE22A0E311C8F016624CA
:102E70006394712C88248A94982CD50113962C91F4
:102E800013974D915D01D801D3964C93D397241B92
:102E9000330BD7963C932E93D697DB96DC92CE924B
:102EA000DA97D5967C926E92D497C901B6010E94AA
:102EB0008F2FD801D9967C936E93D89737FF0BC08C
:102EC000319521953109D7963C932E93D697D59677
:102ED0009C928E92D497D801D6968D919C91B601F2
:102EE0000E948F2FD801DD969C938E93DC97DF96FE
:102EF0005C924E92DE97D2964C93025F1F4F021562
:102F0000130509F0BACF6F015F01B2E3AB0EB11C3C
:102F1000CF010E94CC14892B09F46FC0D6015E96B4
:102F2000ED91FC913E2FD701D8962C91D897329FE6
:102F3000202D1124D2962C93D297DA966D917C9104
:102F4000DB97DC964D915C91E49FC001E59F900D6D
:102F5000F49F900D1124AB0177FF02C04F5F5F4FCC
:102F600055954795840F951F0E948F2FD701D496B2
:102F70004D915C91D59757FD58C0620FD2966C93D6
:102F8000D701DF969C938E93DE97D2968C91D29741
:102F9000D3969C91D397890FD2968C93BEE0EB0E7B
:102FA000F11C0E151F0509F0BECFF601848D958D1D
:102FB00081309105F1F182309105F1F1892B09F011
:102FC0004CC064E07BE0C6010E94751310E000E095
:102FD0007601F0E4EF0EF11C46012EE4820E911C06
:102FE000F601828D938D081719070CF447C02EE067
:102FF00042E061E0C6010E94281381E090E00F905A
:103000000F900F90DF91CF911F910F91FF90EF9054
:10301000DF90CF90BF90AF909F908F907F906F90F8
:103020005F904F903F902F900895261BD2962C933F
:10303000A7CF63EE7AE0C7CF038914898FE790E0CA
:10304000801B910B948B838B62EC7AE0C6010E940B
:103050007513F601148B038BB9CF058916898FE997
:1030600090E0801B910B968B858B6EE97AE0C60110
:103070000E947513F601168B058BA8CFD601D29648
:103080008C918983F70180818A83D4018C918B8311
:10309000D6015196ED91FC919E012F5F3F4F41E08B
:1030A00050E063E170E0C6010995C5010E94ED168C
:1030B000C7010E94ED16C4010E94ED160F5F1F4F5D
:1030C0008FCFCF92DF92EF92FF920F931F93CF9308
:1030D000DF93EC011EA21FA218A60E942B12EB8008
:1030E000FC80C980DA8010E000E0C701801B910BF2
:1030F000181619066CF08FEF8EA38FA388A7DF91A7
:10310000CF911F910F91FF90EF90DF90CF90089596
:10311000A601B801CE010E94AD110F5F1F4FE5CF90
:103120002F923F924F925F926F927F928F929F92D7
:10313000AF92BF92CF92DF92EF92FF920F931F93C5
:10314000CF93DF93EC01462E3C0125ED620E711CFE
:10315000F30150807C01F3EDEF0EF11CF701A0802C
:10316000B1806C01F1EDCF0ED11CF6018080918011
:103170008C010C5F1F4FF1E05F1609F43FC05F1632
:1031800090F122E0521609F444C083E0581609F485
:103190004BC0FE01E259FF4F918280823296B1828C
:1031A000A082389650827097808191814596E0E6A2
:1031B000E41508F044C0FE01E457FF4F208131813F
:1031C000820F931F9C012F5F3F4FF90144914423CD
:1031D00009F4DDC0FC0144914416C9F1F9012491C0
:1031E000820F911DEFCFFC01E659FF4F0190F08156
:1031F000E02DC8010995A80EB91ECBCFFC01E659F8
:10320000FF4F0190F081E02DC8010995881A990AB5
:10321000C0CFFC01E659FF4F0190F081E02DC801BD
:103220000995A81AB90AB5CFFE01E659FF4F0190DA
:10323000F081E02DC8010995880E991EAACFF0E40F
:10324000F41508F0BFCFFE01E657FF4FB7CF009748
:1032500009F49DC05E01FCE6AF0EB11CF5011286BB
:1032600002969183808371966081C5010E949B10B4
:10327000F501808772966081C5010E949B10482EDF
:10328000F501818773962080622DC5010E949B10F5
:10329000982EFE01E058FF4F8080682DC5010E94E6
:1032A0009B10382EFE01EF57FF4F5080652DC50152
:1032B0000E949B105A9441E050E09A0101C0220FF5
:1032C0005A94EAF7582E521AF501808518160CF018
:1032D0004BC02A94CA0101C0880F2A94EAF7981AB1
:1032E0002484340C8A9401C0440F8A94EAF7842E13
:1032F0008318222D482D692D828193810E946910A7
:10330000F50193838283222D482D692D8481958137
:103310000E948210F50195838483168217824E01E4
:10332000FBE78F0E911CC458DF4FF4016081C5018B
:103330000E949B10282E6881C5010E949B10382E88
:1033400040E0622DC8010E94BF1141E0632DC80119
:103350000E94BF1161E0C5010E949B108111F0CF56
:10336000F501878184150CF3852D550C990BF3011C
:103370002081213059F170F0F601223009F0F70177
:1033800020813181281B390B318320830AC090E0D2
:1033900080E0EDCFF60120813181820F931F918370
:1033A000808381E090E0DF91CF911F910F91FF909A
:1033B000EF90DF90CF90BF90AF909F908F907F90D5
:1033C0006F905F904F903F902F900895F701E3CF5B
:1033D0008EBD00000DB407FEFDCF8EB50895CF92CF
:1033E000DF92EF92FF920F931F93CF93DF93EC0145
:1033F0008FB7F894C0904A01D0904B01E0904C01F7
:10340000F0904D018FBF88810E947D0E9C018E81BE
:1034100091E0811104C0232B21F490E002C0232B02
:10342000E1F74E855F856889798997018601041BDC
:10343000150B260B370B49815A816B817C81041750
:1034400015072607370778F41986CA86DB86EC86C7
:10345000FD868F81DF91CF911F910F91FF90EF90AB
:10346000DF90CF9008958F8188879F83292F282709
:103470002987981751F3CE86DF86E88AF98AE5CF47
:10348000CF93DF93EC018D8160E0811162E0888150
:103490000E941C0F88810E947D0E9C0181E02115F5
:1034A000310509F480E08F838E81882329F091E033
:1034B000232B09F090E09F832FB7F89480914A0165
:1034C00090914B01A0914C01B0914D012FBF8A8783
:1034D0009B87AC87BD872F81288719868E879F871A
:1034E000A88BB98BDF91CF9108956091FB018EEE8F
:1034F00091E00E94430E6091FA018EEE91E00E94ED
:10350000430E1092FB011092FA010895089590E085
:1035100080E00895FB0101900020E9F73197AF01A9
:10352000461B570BDC01ED91FC910280F381E02DED
:1035300009940C948A1ACF93DF93EC01E881F98106
:1035400088A19E8D2C8D22A793A784A78CA19DA1D5
:10355000DF01AF52BF4F2AA13BA111963C932E939E
:1035600012968D939C9364E271E0CF010E94991AA8
:1035700088819981FC01EF52FF4F208131813FA367
:103580002EA38D529F4FFC018081918199A788A71E
:10359000DF91CF910895CF93DF93EC01E881F9811A
:1035A00088A19E8D2C8D22A793A784A78CA19DA175
:1035B000DF01AF52BF4F2AA13BA111963C932E933E
:1035C00012968D939C9369E271E0CF010E94991A43
:1035D00088819981FC01EF52FF4F208131813FA307
:1035E0002EA38D529F4FFC018081918199A788A7BE
:1035F000DF91CF910895CF93DF93EC01E881F981BA
:103600008E859C852A8522A793A784A78A899B8972
:10361000DF01AF52BF4F2889398911963C932E9311
:1036200012968D939C936EE271E0CF010E94991ADD
:1036300088819981DC01AF52BF4F2D913C91119748
:103640003D8B2C8BFC01ED52FF4F208131812F5F90
:103650003F4F318320833F8B2E8B20813181225F2E
:103660003F4F488959894D935C9331832083598F0B
:10367000488F208131813B8F2A8F63E371E00E9464
:10368000991A60E371E0888199810E94991A888172
:103690009981FC01EF52FF4F208131813D8F2C8FAA
:1036A0008D529F4FFC01808191819F8F8E8FDF9182
:1036B000CF9108950F931F93CF930DEF11E0D80191
:1036C0008D919C9104960E946118F80180819181EE
:1036D000FC01E659FF4F24E73DE031832083049647
:1036E0000E94AC12D8018D919C9168EA7BE004960F
:1036F0000E94D210F801808591850E94FB1AD801A2
:10370000ED91FC91DF01AF52BF4F11961C921E92BA
:1037100012968FE190E08D939C93CFEFC2A7C3A741
:10372000C4A740E850E06EE170E0CF0104960E942B
:10373000AD11F801808591858E589F4F0E94FB1A2C
:10374000D801ED91FC91DF01AF52BF4F11961C9251
:103750001E9212968FE390E08D939C93C2A7C3A70D
:10376000C4A740E850E06FE370E0CF0104960E94E8
:10377000AD11F801808591858C519F4F0E94FB1AF5
:10378000D801ED91FC91DF01AF52BF4F11961C9211
:103790001E92129680E690E08D939C93C2A7C3A7D9
:1037A000C4A740E850E060E670E0CF0104960E94B4
:1037B000AD11F801808591858A5A9E4F0E94FB1AAF
:1037C000D801ED91FC919F012D523F4FD9016D9190
:1037D0007C91625F7F4FCF018F529F4FDC011D9222
:1037E0001C92D9016D937C93C2A7C3A7C4A740E8DC
:1037F00050E08D5C91090E94AD11D801ED91FC91D2
:10380000DF01AF52BF4F11961C921E92129681E8B3
:1038100090E08D939C93C2A7C3A7C4A740E850E053
:1038200061E870E0CF0104960E94AD11F801828535
:1038300093850E949B1AD8011C968D919C910E94A1
:10384000CB1A81E080938202CF911F910F9108954E
:10385000CF93DF9385ED8093BC00809178019091A8
:103860007901A0917A01B0917B010796A11DB11D4C
:1038700023E0B695A795979587952A95D1F720913E
:10388000BC0024FD03C01092C0012BC04091780100
:103890005091790160917A0170917B01452B462B03
:1038A000472B69F30097A105B10541F025E32A955F
:1038B000F1F700000197A109B109E1CF80917701EB
:1038C00091E090937601882361F0C091B800D09187
:1038D000BA000E94D40E0E94E10ED093BA00C093A9
:1038E000B800DF91CF910895CF93DF93EC01FC01F5
:1038F000E05BFF4F80819181009711F00E94593069
:103900008AAD9BAD009721F0DF91CF910C94593097
:10391000DF91CF910895EF92FF920F931F93CF9372
:10392000DF93EC017B018A0188819981009729F05E
:103930002A813B812417350788F4B8016F5F7F4FD8
:103940000E94E230009791F0998388831B830A8359
:103950002C813D81232B11F4FC0110821D830C83EB
:10396000B701888199810E94A8310CC08881998112
:10397000009711F00E945930198218821D821C8212
:103980001B821A82CE01DF91CF911F910F91FF9080
:10399000EF900895FC011182108213821282158229
:1039A000148250E040E063E471E00C948B1CFB0156
:1039B000DC0111961C921E9213961C921E92129775
:1039C00015961C921E9214978617970749F06081EE
:1039D00071816115710521F0448155810C948B1C16
:1039E00008950F931F93CF93DF93EC018B01FB019D
:1039F0008081918199838883828193819B838A834B
:103A0000848195819D838C8386819781A085B185F2
:103A10008E839F83A887B987828593859B878A87B2
:103A2000848595859D878C87868597859F878E87DA
:103A300080899189998B888B828993899B8B8A8BCA
:103A4000848995899D8B8C8B868997899F8B8E8B9A
:103A5000808D918D998F888F828D938D9B8F8A8F8A
:103A6000848D958D9D8F8C8F868D978D9F8F8E8F5A
:103A700080A191A1A2A1B3A188A399A3AAA3BBA34A
:103A800084A195A1A6A1B7A18CA39DA3AEA3BFA31A
:103A900080A591A5A2A5B3A588A799A7AAA7BBA70A
:103AA00084A595A5A6A5B7A58CA79DA7AEA7BFA7DA
:103AB00080A991A999AB88AB82A993A99BAB8AAB4A
:103AC00084A995A9A6A9B7A98CAB9DABAEABBFAB9A
:103AD00080AD91AD99AF88AF665C7F4FCE01CA963D
:103AE0000E94D71CF801E05CFF4F80819181FE01AC
:103AF000E05CFF4F91838083F801EE5BFF4F808194
:103B00009181FE01EE5BFF4F91838083F801EC5BB6
:103B1000FF4F80819181A281B381FE01EC5BFF4F59
:103B200080839183A283B383F801E85BFF4F808198
:103B30009181A281B381FE01E85BFF4F8083918375
:103B4000A283B383F801E45BFF4F80819181FE0182
:103B5000E45BFF4F91838083F801E25BFF4F80813C
:103B60009181FE01E25BFF4F91838083B801605B2E
:103B70007F4FCE01805B9F4F0E94D71CF801EA5A0D
:103B8000FF4F80819181A281B381FE01EA5AFF4FEC
:103B900080839183A283B383F801E65AFF4F80812B
:103BA0009181A281B381FE01E65AFF4F8083918308
:103BB000A283B383F801E25AFF4F80819181FE0115
:103BC000E25AFF4F91838083F801E05AFF4F8081D2
:103BD0009181A281B381FE01E05AFF4F80839183DE
:103BE000A283B383F801EC59FF4F80819181FE01DC
:103BF000EC59FF4F91838083F801EA59FF4F808190
:103C00009181FE01EA59FF4F91838083F801E859C1
:103C1000FF4F80819181A281B381FE01E859FF4F5E
:103C200080839183A283B383F801E459FF4F80819D
:103C30009181A281B381FE01E459FF4F808391837A
:103C4000A283B383F801E059FF4F80819181C0596D
:103C5000DF4F99838883DF91CF911F910F91089552
:103C6000CF92DF92EF92FF920F931F93CF93DF9348
:103C70007C01EA018901FB013A97EC30F10508F07B
:103C8000C4C0EB5BF14E0C94A32F771E131F371F9C
:103C9000421F4D1F511F571F5B1F641F711F6B1E5B
:103CA000511E83E9E80EF11C209709F4AEC0F8011B
:103CB0009081992341F0F701808160E0913009F013
:103CC00061E00E94A60EF80181810E94E8190E5F52
:103CD0001F4F2197E9CFC20FD31FC017D10709F497
:103CE00094C0F80181918F010E94E819F6CFFC0180
:103CF000EE56FF4F80818F3F19F061E00E941C0F4C
:103D0000F701ED56FF4F61E080810E941C0FF70123
:103D1000EC56FF4F80818F3F19F061E00E941C0F2D
:103D2000CFB7F89480914801811127C0EEE9FBE0FC
:103D30008491E0E8FBE09491E82FF0E0EE0FFF1FA4
:103D4000E25BF44FA591B491EC91E92321F461E099
:103D50008AE00E94A60E61E08AE00E941C0F8CB5EA
:103D600080618CBD8CB580648CBD61E08DE00E946B
:103D70001C0F61E08BE00E941C0F809148018F5F57
:103D800080934801CFBFF8012081318150E040E0AD
:103D900060E07AEC8AE99BE30E94492EC12C62E143
:103DA000D62E6AE7E62EF12C80E02C153D054E0557
:103DB0005F0540F4F694E794D794C7948F5F8630FC
:103DC000A1F787E0982F906A969580958170209151
:103DD0004701222361F02FB7F89430914701313029
:103DE000F9F43DB3309346013DB33DBB2FBF9CBDBD
:103DF0008DBD8CB58C7F8CBD8DB58E7F8DBD8CB50A
:103E0000837F8CBD8CB58F7D8CBD81E090E0DF9190
:103E1000CF911F910F91FF90EF90DF90CF90089579
:103E200020934601E4CF80914701882351F09FB74A
:103E3000F89420914701809146012130B1F48DBB67
:103E40009FBF9FB7F89480914801882319F0815053
:103E50008093480180914801811105C08CB58F7B0A
:103E60008CBD109247019FBFD0CF8FBFEACF4230A9
:103E7000510558F2CC0FDD1FCC0FDD1F2597219780
:103E8000F1F7C3CFFC01EE56FF4F80816C2F8F3FBF
:103E900009F4BBCF0E94A60EB8CFFC01EC56FF4F31
:103EA000F4CFFC01ED56FF4F642F8081F3CF842FB8
:103EB0000E94E819AACF209709F4A7CFF8018081C2
:103EC0000E94E8192197F7CF209709F49ECFF801B7
:103ED00080810E94E819F80181810E94E8192197E8
:103EE000F3CF209709F491CFF80180810E94E8195F
:103EF000F80181810E94E819F80182810E94E81985
:103F00002197EFCF6F927F928F929F92AF92BF9245
:103F1000CF92DF92EF92FF920F931F93CF93DF9395
:103F2000CDB7DEB7C055D1090FB6F894DEBF0FBECE
:103F3000CDBF7C01CDB6DEB68091FC0181112CC0D5
:103F400085E00E947D0E892B39F581E08093FB018D
:103F50008093FA0180937F020FB6F894DEBE0FBE05
:103F6000CDBE0FB6F894DEBE0FBECDBEC05BDF4F38
:103F70000FB6F894DEBF0FBECDBFDF91CF911F917A
:103F80000F91FF90EF90DF90CF90BF90AF909F90F8
:103F90008F907F906F9008958091FC01811197C060
:103FA0008DB79EB78E199F090FB6F8949EBF0FBEAE
:103FB0008DBF0DB71EB70F5F1F4F8896F801119286
:103FC000E817F907E1F7CE018896FE0131961192C4
:103FD000E817F907E1F7FE01B99681E090E08C0F50
:103FE0009D1F815B9F4F7E2E6F2E11928E179F0714
:103FF000E1F748018E0C9F1C58018A149B0409F4B8
:104000003DC02FB7F89480914A0190914B01A09147
:104010004C01B0914D012FBF8093F6019093F701B1
:10402000A093F801B093F9018EEE91E00E941E0E6C
:1040300097FFFBC22FB7F89480914A0190914B01F2
:10404000A0914C01B0914D012FBF4091F6015091CC
:10405000F7016091F8017091F901841B950BA60B93
:10406000B70B4091F2015091F3016091F40170910E
:10407000F50184179507A607B707B0F2F80180810C
:1040800081112CC08091FF02909100032091FD02CC
:104090003091FE0230934C0720934B0790934E07CC
:1040A00080934D078FEF8093A4068093A50610920E
:1040B000A60661818AE796E00E94AF0FF80162814F
:1040C0008AE796E00E94AF0FF80163818CC085E01B
:1040D0000E947D0E019709F063CF3ECF813009F039
:1040E000B9C0E091E902F091EA0280910303909156
:1040F0000403DF01AF52BF4F20910103309102034F
:1041000011963C932E9312968D939C938091F70277
:104110009091F5022091F30222A793A784A7E09142
:10412000ED02F091EE028081882309F461C0872DB1
:10413000962D0E946B2B6093490370934A038093E2
:104140004B0390934C0320E030E040E251E40E94A6
:104150007B2E20E030EC4FE754E40E94462D20E017
:1041600030E040EA51E40E94E72E20E030E0A9016F
:104170000E947B2E0E94592F70934E0360934D0333
:10418000672D762D8091E9029091EA020E94991A9A
:104190008091030390910403209101033091020365
:1041A00030934C0720934B0790934E0780934D0715
:1041B0008FEF8093A4068093A5061092A606F801BF
:1041C00061818AE796E00E94AF0FF80162818AE779
:1041D00096E00E94AF0FF80163818AE796E00E94A3
:1041E000AF0FF80164818AE796E00E94AF0FB4CE6A
:1041F000872D962D0E946B2B60931D0370931E03D9
:1042000080931F0390932003209121033091220378
:1042100030932A032093290320E030E040E251E468
:104220000E947B2E20E030EC4FE754E40E94462DA4
:1042300020E030E040EA51E40E94E72E20E030E048
:10424000A9010E947B2E0E94592F70932203609334
:10425000210396CF8230C1F4809107039091080327
:10426000209105033091060330934C0720934B07B0
:1042700090934E0780934D078FEF8093A406809311
:10428000A5061092A60615CF803191F58091710395
:104290009091720320916F033091700330934C071B
:1042A00020934B0790934E0780934D071092A406DE
:1042B00082EA8093A5068FEF8093A60661818AE744
:1042C00096E00E94AF0FF80162818AE796E00E94B3
:1042D000AF0FF80163818AE796E00E94AF0FF80103
:1042E00064818AE796E00E94AF0FF80165817BCF79
:1042F0008131C9F480917503909176032091730305
:104300003091740330934C0720934B0790934E07E2
:1043100080934D071092A40682EA8093A5068FEF42
:104320008093A6064CCF823159F580917903909104
:104330007A03209177033091780330934C072093D0
:104340004B0790934E0780934D071092A40682EA84
:104350008093A5068FEF8093A6065801FFEFAF1A52
:10436000BF0AC501801B910B8E159F0508F0F4CD87
:10437000F50161915F018AE796E00E94AF0FF1CFEE
:10438000803259F58091E3039091E4032091E10399
:104390003091E20330934C0720934B0790934E07E4
:1043A00080934D078FEF8093A4068CE38093A5063E
:1043B0001092A6065801FFEFAF1ABF0AC501801B75
:1043C000910B8E159F0508F0C7CDF50161915F0136
:1043D0008AE796E00E94AF0FF1CF813259F58091C4
:1043E000E7039091E8032091E5033091E6033093D1
:1043F0004C0720934B0790934E0780934D078FEF08
:104400008093A4068CE38093A5061092A60658011B
:10441000FFEFAF1ABF0AC501801B910B8E159F05D8
:1044200008F09ACDF50161915F018AE796E00E945C
:10443000AF0FF1CF823259F58091EB039091EC03ED
:104440002091E9033091EA0330934C0720934B0706
:1044500090934E0780934D078FEF8093A4068CE3D3
:104460008093A5061092A6065801FFEFAF1ABF0A67
:10447000C501801B910B8E159F0508F06DCDF501D0
:1044800061915F018AE796E00E94AF0FF1CF803320
:1044900049F5809155049091560420915304309130
:1044A000540430934C0720934B0790934E0780930E
:1044B0004D078FEF8093A4061092A50684EC80939D
:1044C000A6067801FFEFEF1AFF0A0A5F1F4FF701F8
:1044D00061917F018AE796E00E94AF0F0E151F05DC
:1044E000B1F73ACD8133B9F48091590490915A04CF
:1044F000209157043091580430934C0720934B0778
:1045000090934E0780934D078FEF8093A4061092EF
:10451000A50684EC05CF823359F580915D04909116
:104520005E0420915B0430915C0430934C0720932F
:104530004B0790934E0780934D078FEF8093A4060F
:104540001092A50684EC8093A6065801FFEFAF1ADF
:10455000BF0AC501801B910B8E159F0508F0FCCC8E
:10456000F50161915F018AE796E00E94AF0FF1CFFC
:10457000803461F58091DF029091E0022091DD02AC
:104580003091DE0230934C0720934B0790934E07F7
:1045900080934D078BED8093A40684E58093A50658
:1045A00081E68093A6065801FFEFAF1ABF0AC50146
:1045B000801B910B8E159F0508F0CECCF501619103
:1045C0005F018AE796E00E94AF0FF1CF803509F0D6
:1045D000C3CC8091AD029091AE022091AB0230919C
:1045E000AC0230934C0720934B0790934E07809377
:1045F0004D078DE38093A40684E58093A50687E6A6
:104600008093A6065801FFEFAF1ABF0AC501801BB1
:10461000910B8E159F0508F09FCCF50161915F010C
:104620008AE796E00E94AF0FF1CFF50181935F0119
:10463000E4CC1F920F920FB60F9211242F933F9349
:104640004F935F936F937F938F939F93AF93BF939A
:10465000EF93FF938091B900887F803609F44AC0B8
:10466000F0F5883209F4A7C018F5803109F49BC031
:10467000B8F4882309F4F9C0883009F494C0FF9194
:10468000EF91BF91AF919F918F917F916F915F91CA
:104690004F913F912F910F900FBE0F901F90189543
:1046A000883109F488C0803251F78093BF0114C06B
:1046B000803409F49DC040F48033B9F38833F9F6AF
:1046C0008093BF0185ECB0C0803509F485C0883582
:1046D00009F496C0883499F60E94281CD0CF8839F6
:1046E00009F48CC038F5883729F050F4883611F079
:1046F000803729F683E08093C0011092BE0157C035
:10470000883809F47BC0803919F0803809F0B7CFB8
:104710008091BE01803208F071C0E091BE0181E05D
:104720008E0F8093BE018091BB00F0E0E256FE4FF9
:1047300080833DC0803B39F0E0F4803A09F479C0D1
:10474000883A09F09CCF84E08093C00110929D01CB
:1047500010929C01E091E601F091E70109958091AA
:104760009C0181110FC081E080939C0110927C011B
:1047700009C0803C09F4A6CF883C09F4A3CF883B4C
:1047800009F07DCFE0919D0181E08E0F80939D0126
:10479000F0E0E458FE4F80818093BB0090919D0132
:1047A00080919C0129C08091E5018093BB0085EC3C
:1047B0008093BC0064CF9091E4018091E30198174D
:1047C00058F5E091E40181E08E0F8093E401F0E080
:1047D000ED53FE4F8081E9CFE091E40181E08E0F3F
:1047E0008093E4018091BB00F0E0ED53FE4F8083A5
:1047F0009091E4018091E3019817C8F285E8D8CF41
:10480000E091E40181E08E0F8093E4018091BB0090
:10481000F0E0ED53FE4F80838091C20181115CCFA7
:1048200081E08093C10184EA8093BC001092C001B2
:1048300026CF85EC8093BC001092C0018091BE0110
:10484000803230F4E091BE01F0E0E256FE4F10827B
:104850006091BE0170E0E091E801F091E9018EE91C
:1048600091E009951092BE010ACF1092BF0134CF9A
:104870001F920F920FB60F9211242F933F938F9395
:104880009F93AF93BF9380914A0190914B01A09168
:104890004C01B0914D013091490123E0230F2D3798
:1048A00058F50196A11DB11D2093490180934A013D
:1048B00090934B01A0934C01B0934D0180914E0118
:1048C00090914F01A0915001B09151010196A11D0D
:1048D000B11D80934E0190934F01A0935001B0936E
:1048E0005101BF91AF919F918F913F912F910F9067
:1048F0000FBE0F901F90189526E8230F0296A11D5A
:10490000B11DD2CF2F923F924F925F926F927F92C2
:104910008F929F92AF92BF92CF92DF92EF92FF92CF
:104920000F931F93CF93DF93EEEEF1E01382128289
:1049300088EE93E0A0E0B0E084839583A683B783FC
:104940008AE091E091838083E0E5F7E084E0808372
:1049500089E190E0A0E0B0E081839283A383B483F7
:1049600091E0958396830AE716E0D80113961C928E
:104970001E9212978CE191E08D939C930E94661297
:104980008CE191E0F801918380830E94661281ECB2
:1049900096E1909348078093470787E097E19093CB
:1049A0004A078093490789E08093100788E0809345
:1049B00011078AE080931207EDE9FBE0E491F0E053
:1049C000EE0FFF1FE657F44F8591949190931E07C9
:1049D00080931D07EFE7FBE0E491E0933707ECE9F4
:1049E000FBE0E491F0E0EE0FFF1FE657F44F8591F6
:1049F00094919093200780931F07EEE7FBE0E491EA
:104A0000E0933807EEE9FBE0E491F0E0EE0FFF1FE2
:104A1000E657F44F85919491909322078093210754
:104A2000E0E8FBE0E491E09339078CE191E0D80104
:104A30008D939C93C8E0D6E01983088337E0232E3A
:104A400036E0332E3D822C8218A619A61AA61BA684
:104A50001CAA1DAA1EAA1FAA82E496E00E94CA1CD4
:104A600010924B0610924A0688E596E00E94CA1CF6
:104A700010925E0610925F06109260061092610618
:104A8000109268061092690610926A0610926B06E0
:104A900010926F0610926E06198A188A83E690E0CB
:104AA0009B8B8A8B8AEF97E1A0EBB3E38E839F8386
:104AB000A887B98788E290E0A0E0B0E088A399A336
:104AC000AAA3BBA380E293E0A0E0B0E08CA39DA3E7
:104AD000AEA3BFA343E0E42EF12CFB82EA82CC24F8
:104AE000CA94D12CDB86CA86DD86CC861F861E86BC
:104AF000C5E9D5E0198308833D822C8218A619A642
:104B00001AA61BA61CAA1DAA1EAA1FAA8FEC95E016
:104B10000E94CA1C1092D8051092D70585EE95E028
:104B20000E94CA1C1092EB051092EC051092ED0544
:104B30001092EE051092F5051092F6051092F70509
:104B40001092F8051092FC051092FB05198A188A3C
:104B500082E490E09B8B8A8B6BEF462E6FED562E96
:104B60006CE0662E62E3762E4E825F8268867986DE
:104B700070E9872E99249394A12CB12C88A299A234
:104B8000AAA2BBA280E49FE1A0E0B0E08CA39DA319
:104B9000AEA3BFA381E090E09B838A831B861A8625
:104BA00082EA90E09D878C87DF86CE86C3E2D5E0DF
:104BB000198308833D822C8218A619A61AA61BA663
:104BC0001CAA1DAA1EAA1FAA8DE595E00E94CA1C58
:104BD000109266051092650583E795E00E94CA1C55
:104BE0001092790510927A0510927B0510927C053F
:104BF0001092830510928405109285051092860507
:104C000010928A0510928905198A188A81E290E02B
:104C10009B8B8A8B4E825F826886798688A299A256
:104C2000AAA2BBA280E49FE1A0E0B0E08CA39DA378
:104C3000AEA3BFA382E090E09B838A83DB86CA8613
:104C40008CE390E09D878C871F861E86C1EBD4E0A5
:104C5000198308833D822C8218A619A61AA61BA6C2
:104C60001CAA1DAA1EAA1FAA8BEE94E00E94CA1CB1
:104C70001092F4041092F30481E095E00E94CA1CA3
:104C800010920705109208051092090510920A0566
:104C9000109211051092120510921305109214052E
:104CA0001092180510921705198A188A1B8A1A8AF9
:104CB00083EC90E0A6E8B1E38E839F83A887B98751
:104CC00080E293E0A0E0B0E088A399A3AAA3BBA3ED
:104CD00088E692E4A0E0B0E08CA39DA3AEA3BFA3BE
:104CE000FB82EA82DB86CA861D861C8684EC90E005
:104CF0009F878E8768E076E089EE92E00E94F11C43
:104D000065E975E08BE593E00E94F11C63E275E0D4
:104D10008DEC93E00E94F11CBE018FE394E00E94B1
:104D2000F11CC7EBD2E01983088380E690E0A0E095
:104D3000B0E08AA79BA7ACA7BDA787E199E3A0E055
:104D4000B0E08EA79FA7A8ABB9AB8FE59BE6A5EB1C
:104D5000BFE28A839B83AC83BD831BA21AA285E832
:104D600090E09DA38CA38BED90E09D8F8C8F84E5CC
:104D700090E09F8F8E8F21E630E039A328A3A5E82D
:104D8000B2E011961C930E934AE150E060E070E0AF
:104D90009A964D935D936D937C939D9740E459E073
:104DA00060E070E09E964D935D936D937C93D197F8
:104DB0004FE35DEE64EA70E312964D935D936D935D
:104DC0007C93159793961C921E92929725E930E05A
:104DD00095963C932E9394972DE330E05D963C930B
:104DE0002E935C975F969C938E935E9787E690E0F8
:104DF00091969C938E939097EDEFF1E01183008351
:104E00008CEF91E09383828335822482178216820D
:104E100089EE92E091878087D387C287B587A48780
:104E20008BEF91E0978786878AEF91E0918B808B5B
:104E3000138A128A158A148A178A168A118E108E7E
:104E4000138E128E158E148E10927F021092800295
:104E500010928102109282021092840210928302B8
:104E6000E2E6F7E085E0808389E190E0A0E0B0E051
:104E700081839283A383B48391E095839683DF91AA
:104E8000CF911F910F91FF90EF90DF90CF90BF9047
:104E9000AF909F908F907F906F905F904F903F90DA
:104EA0002F900895CF93DF93CDB7DEB7A1970FB6BC
:104EB000F894DEBF0FBECDBF789484B5826084BD08
:104EC00084B5816084BD85B5826085BD85B581600E
:104ED00085BD80916E00816080936E00109281008C
:104EE0008091810082608093810080918100816047
:104EF0008093810080918000816080938000809108
:104F0000B10084608093B1008091B0008160809393
:104F1000B00080917A00846080937A0080917A005A
:104F2000826080937A0080917A00816080937A0019
:104F300080917A00806880937A001092C1008091FD
:104F4000490790914A07409147075091480720919F
:104F50007E062E7F20937E0610928806109287068A
:104F600021E030E030939F0620939E061092E306E6
:104F70001092E2062093F106109244071092450722
:104F800010924607009711F484EE9DE090938606F8
:104F900080938506509384064093830680E39EE1C8
:104FA0009093900680938F060E94DA0D0E94B30DB5
:104FB0008EE796E00E9456121092F1068EE796E078
:104FC0000E94611884E79DE09093E5068093E406D3
:104FD0008EE796E00E94AC1268EA7BE08EE796E0EE
:104FE0000E94D2101FEF1093A4061093A5061093F1
:104FF000A60662E085E00E941C0F62E084E00E9449
:105000001C0F62E087E00E941C0F80E597E00E9481
:10501000401A8AE590E090934C0780934B078FEFFE
:105020009FEF90934E0780934D0789EE92E00E9488
:10503000FB1A10924C0710924B078FE190E090936F
:105040004E0780934D071093A4061093A506109366
:10505000A60640E850E06EE170E08EE796E00E9420
:10506000AD118BE593E00E94FB1A10924C07109251
:105070004B078FE390E090934E0780934D0710937A
:10508000A4061093A5061093A60640E850E06FE32F
:1050900070E08EE796E00E94AD118DEC93E00E94E7
:1050A000FB1A10924C0710924B0780E690E0909309
:1050B0004E0780934D071093A4061093A5061093F6
:1050C000A60640E850E060E670E08EE796E00E94B9
:1050D000AD118FE394E00E94FB1A60914D0770912F
:1050E0004E07625F7F4F10924C0710924B077093F0
:1050F0004E0760934D071093A4061093A5061093D6
:10510000A60640E850E08EE796E00E94AD111092AE
:105110004C0710924B0781E890E090934E078093E4
:105120004D071093A4061093A5061093A60640E819
:1051300050E061E870E08EE796E00E94AD1187EBE9
:1051400092E00E949B1A85E892E00E94CB1A68EEDA
:1051500073E080E090E00E947D0F1092ED011092CC
:10516000EC011092EB011092EA010E94E10E8DE732
:105170009DE09093E7018093E60189E89DE090939C
:10518000E9018093E80188E08093BA0082E89FE11A
:10519000909373018093720185E79AE19093750172
:1051A0008093740152E2E52EF12C60E2462E7DE7F9
:1051B000C72E7DE0D72EE9E8AE2EEDE0BE2E772497
:1051C000739492E0592E25E9222E38E0332E40E0E8
:1051D000842E40E0942E8091FC018111FBC185E07A
:1051E0000E947D0E892B09F0F5C170927F0282E644
:1051F00097E00E94401A0E94D40E8091FD01909188
:10520000FE0104960E9461188091FD019091FE01BB
:1052100063EA70E004960E94D2108091FD019091A3
:10522000FE01FC01EF52FF4FF182E08232961182C3
:1052300010826BE371E00E94991A0BE112E081E3A6
:10524000682E8091FD019091FE01FC01ED52FF4F0F
:10525000208131812F5E3F4FDC01AF52BF4F1D9245
:105260001C923183208319A268A2BE01605E7F4F29
:105270000E948A1A8091FD019091FE01FC01EF527B
:10528000FF4F20813181F80131832083FC01ED52F1
:10529000FF4F20813181F8013383228360E471E084
:1052A0000E94991A8091FD019091FE01DC01AF529C
:1052B000BF4F2D913C911197F80131A320A3BC0160
:1052C0006D527F4FFB0120813181F80133A322A36E
:1052D00063940C5F1F4FF9E36F12B3CF70927F029C
:1052E00020910F0230911002A901440F551F440F65
:1052F000551F435C5D4FFA0140815181220F331FDE
:10530000220F331F23503E4FF90126AD37AD2D93A9
:105310003C93FB015183408364E471E00E94991A3D
:1053200082E697E00E94EF1980917F02882309F4BA
:1053300051C182E697E00E94EF19809169078111BF
:1053400095C080916B07882309F4BEC020910F029D
:10535000309110028091FD019091FE01DC01AF526D
:10536000BF4FBC016D527F4F2730310571F5209141
:10537000590230915A0240915702509158024D9370
:105380005C93FB013183208362E471E00E94991AEF
:105390001092100210920F028091FD019091FE0177
:1053A00020913D0230913E02FC01EF52FF4F4091AF
:1053B0003B0250913C0251834083329631832083DB
:1053C00064E471E00E94991AAFCFA901440F551F00
:1053D000440F551F435C5D4FFA0140815181220FFC
:1053E000331F220F331F23503E4FF90126AD37AD37
:1053F0002D933C93FB015183408362E471E00E9452
:10540000991A40910F02509110029A012F5F3F4F5D
:105410003093100220930F028091FD019091FE01C4
:10542000440F551F440F551FFA01EF5BFD4F40819C
:105430005181FC01EF52FF4F220F331F220F331F08
:10544000D901A350BE4FDE962D913C91318320832C
:1054500032965183408364E471E00E94991A64E6B5
:1054600070E080E090E00E947D0F5ECF80916C073D
:1054700090916D07A0916E07B0916F0740917007F2
:10548000509171076091720770917307841B950B9F
:10549000A60BB70B883E9340A105B105A8F010926A
:1054A0007F02E0910B02F0910C021082E0910D025C
:1054B000F0910E0210828091FD019091FE01049600
:1054C0000E9461180E945A1B84E00E947D0E892B65
:1054D00089F5E0910B02F0910C024082E0910D02FF
:1054E000F0910E0280910F02808384E00E94FF0EF3
:1054F00064E670E080E090E00E947D0F0E94D40E90
:10550000E0910102F0910202708210927F02E0911C
:105510000B02F0910C021082E0910D02F0910E024C
:1055200010828091FD019091FE0104960E94611805
:105530000E945A1B87E00E947D0E892B09F0F4CE51
:10554000E0910B02F0910C0220E12083E0910D022A
:10555000F0910E0280910F02808384E00E94FF0E82
:1055600064E670E080E090E00E947D0F0E94D40E1F
:10557000E0910B02F0910C024082E0910D02F0915B
:105580000E0280910F02808384E00E94FF0E64E689
:1055900070E080E090E00E947D0F0E94D40EE091C8
:1055A0000102F0910202708210927F02E0910B02E0
:1055B000F0910C021082E0910D02F0910E02108227
:1055C0008091FD019091FE0104960E9461180E9455
:1055D0005A1BAACE8091FC01811146C080918202A3
:1055E000882329F180E597E00E94EF19109282024A
:1055F0001092BC002092FB0180910706882309F4D9
:1056000040C01092FA011092ED011092EC0110923C
:10561000EB011092EA010E94E10ED092E701C092E4
:10562000E601B092E901A092E8013092BA0080E56B
:1056300097E00E94EF198091570781111BC080915C
:1056400059078823B9F0809107068823E9F0109262
:1056500007065092FB011092FA0164E670E080E0C8
:1056600090E00E947D0F06C085E00E947D0E0197AC
:1056700009F0B4CF8114910409F4ADCD0E9400006B
:105680009ECD7092FA01BFCF709207065092FB0137
:105690007092FA01E2CF8FE394E00E94741C8DECCB
:1056A00093E00E94741C8BE593E00E94741C89EEC9
:1056B00092E00E94741C81EB94E00E94741C83E2CF
:1056C00095E00E94741C85E995E00E94741C88E0B6
:1056D00096E00C94741C662777270C946F2BB0E02F
:1056E000A0E0E5E7FBE20C94182E5C017B0161155C
:1056F000710519F0DB018D939C9385010F5F1F4F9E
:10570000F501D0818D2F90E00E94BF2C6C01892B78
:10571000B9F5DD32B9F50F5F1F4FD5011196DC9158
:10572000C1E05801F1E0AF1AB10843E050E060E792
:1057300070E0C5010E94C82C892B69F5680182E0E0
:10574000C80ED11C45E050E06BE670E0C6010E9437
:10575000C82C892B21F4680197E0C90ED11CE114F3
:10576000F10419F0D701CD92DC9260E070E080E89E
:105770009FEFC111FFC060E070E080E89FE7FAC0D2
:105780005801BBCFDB3229F485010E5F1F4FF501B5
:10579000D181C0E0C6CF43E050E068E670E0C501CB
:1057A0000E94C82C892BE9F0F80110E000E020E00D
:1057B00030E0A9015F01B0ED8B2E8D0E89E08815D8
:1057C000C8F19C2E689491F88C2F8870C2FF16C087
:1057D000811102C00F5F1F4F3196D501DC91C92D99
:1057E000E9CFE114F10429F00E5F1F4FF701118397
:1057F000008360E070E080EC9FE7BCC0882311F07C
:1058000001501109A5E0B0E00E94072E9B01AC01F8
:10581000220F331F441F551F280D311D411D511DDF
:10582000283999E93907490799E15907A8F2C6606B
:105830009C2ED2CFAEEF8A1206C0C3FD3CC09C2E78
:10584000689493F8C9CFDF7DD534A9F580818D3276
:1058500039F4C061DF011296818162E070E006C018
:10586000DF018B32C1F3119661E070E080535D017E
:10587000A61AB70A8A30F8F4E0E8CE16ECE0DE06A5
:105880005CF4B601660F771F660F771FC60ED71E32
:10589000CC0CDD1CC80ED11C5D01FFEFAF1ABF0A96
:1058A0008C9180538A30A8F1C4FF03C0D194C19475
:1058B000D1080C0D1D1DC1FF09C0E114F10431F028
:1058C00081E0A81AB108D701AD92BC92CA01B90112
:1058D0000E94E52CC370C33009F490584B015C0161
:1058E00020E030E0A9010E94E02C882309F440C0A8
:1058F000CFE9D0E017FF05C0119501951109C7E860
:10590000D0E06E01B8E1CB1AD10880E2E82EF12C8C
:105910000FC0D501B1CFFE0125913591459154912C
:105920000E191F09C501B4010E94462D4B015C01EF
:10593000D501C4010E151F0574F72497F594E7945B
:10594000CC16DD06A9F78A2F880F8B2F881F8F3F73
:1059500049F020E030E0A901C501B4010E94E02C2B
:10596000811106C082E290E09093750780937407DE
:10597000C501B401CDB7DEB7ECE00C94342E911123
:105980000C94B32D803219F089508550C8F70895D2
:10599000FB01DC014150504088F08D9181341CF0B6
:1059A0008B350CF4805E659161341CF06B350CF422
:1059B000605E861B611171F3990B0895881BFCCF03
:1059C0000E94222D08F481E00895E89409C097FB15
:1059D0003EF490958095709561957F4F8F4F9F4FC6
:1059E0009923A9F0F92F96E9BB279395F69587950A
:1059F00077956795B795F111F8CFFAF4BB0F11F4CD
:105A000060FF1BC06F5F7F4F8F4F9F4F16C0882373
:105A100011F096E911C0772321F09EE8872F762FA9
:105A200005C0662371F096E8862F70E060E02AF0EA
:105A30009A95660F771F881FDAF7880F96958795D6
:105A400097F90895990F0008550FAA0BE0E8FEEFAB
:105A500016161706E807F907C0F012161306E40732
:105A6000F50798F0621B730B840B950B39F40A262B
:105A700061F0232B242B252B21F408950A2609F409
:105A8000A140A6958FEF811D811D08950E94592D7B
:105A90000C94CD2D0E94BF2D38F00E94C62D20F011
:105AA000952311F00C94B62D0C94BC2D11240C945C
:105AB000012E0E94DE2D70F3959FC1F3950F50E0EB
:105AC000551F629FF001729FBB27F00DB11D639FB0
:105AD000AA27F00DB11DAA1F649F6627B00DA11D56
