:100000000C947E080C94A6080C94A6080C94A608E0
:100010000C94A6080C94A6080C94A6080C94A608A8
:100020000C94A6080C94A6080C94A6080C94A60898
:100030000C94A6080C94A6080C94A6080C94A60888
:100040000C94EF1C0C94A6080C945F1D0C94391DA5
:100050000C94A6080C94A6080C94A6080C94A60868
:100060000C94D01B0C94A60807634236B79BD8A704
:100070001A39685618AEBAAB558C1D3CB7CC5763CD
:10008000BD6DEDFD753EF6177231BF000000803F7B
:1000900008000000BE922449123EABAAAA2ABECD97
:1000A000CCCC4C3E00000080BEABAAAAAA3E000009
:1000B0000000BF000000803F000000000008417801
:1000C000D3BB4387D1133D190E3CC3BD4282AD2B38
:1000D0003E68EC8276BED98FE1A93E4C80EFFFBE30
:1000E00001C4FF7F3F0000000000F4113600102A19
:1000F000A00000A0FF0062007F102BB00000B0FF46
:100100000062009F102C7000F410101028F500F40D
:10011000113680113680102AA00000A0FF00A00038
:1001200000A0FF00102BB00000B0FF0062009F1085
:100130002C7000F4113640113640102AA00000A0A7
:10014000FF0062007F102BB80100B0FF0062009F2B
:10015000102C7000F4113600102AA00000A0FF003F
:10016000A00000A0FF00102BB00000B0FF00620054
:100170009F102C7000F4113600102AA00000A0FF80
:100180000062007F102BB00000B0FF0062009F10E3
:100190002C7000FDF1F58005F08005F18032F4103F
:1001A00011800A10131020113A061029113600147C
:1001B0002A0000007F142B0000009F102CF5000087
:1001C0000000080002010000030407000000000016
:1001D00000000000000000240027002A00010204A3
:1001E00008102040800102040810200102040810B9
:1001F0002000000000250028002B00040404040453
:10020000040404020202020202030303030303BF05
:1002100002040204050103050A1100FC0AFD0CFE9C
:10022000025304C920081A433FFF2B00210D1A4333
:10023000BBD087C97A90504F0E220E1A43B3442484
:10024000114952923C7F03231D1A437B2416894592
:10025000520ACD60208AC422A1C14013894562910F
:1002600094424F0E241A1A43576E2052C422B148AA
:100270004C915B0A77895C22371A08F34400251DEC
:100280001A43EF2811B1C8444A14A1453258B2515B
:100290004432918822134988F6B400261D1A43F788
:1002A0004C9292A414B2334566109124348A842867
:1002B00011D18806833C2D00270A1A43BBD030CFCA
:1002C0005F0128101A433F24E750986C29549AE69E
:1002D000710029101A43AF54A94C0A7D18D4C9F4EF
:1002E00060002A121A43BB3097488824C15C42162A
:1002F000C9F30D002B0D1A433FCBCE060355B29E1A
:10030000012C0C1A433FBF142A83C23C002D0A1A49
:10031000433FEF067BDE012E0A1A433FBF14EAC9B2
:10032000012F141A433F26181406854161501814F2
:100330000685793400301C1A43F72025D1883222F3
:10034000894822928824228948220A4954833C35CC
:1003500000310E1A43BB6AA0EC5F0D067A5A0032D8
:10036000111A43F3209A141A76280C0E06796200AB
:1003700033111A43F34029348C4D85CAA0D1204F44
:100380000E34171A433F40A84BC414B1484A92CACE
:10039000848A06035DB29E1A35111A43F360243431
:1003A0001C240DDDA90679720036191A43FB2015AD
:1003B0004C0615A38946241149449A9046A21AE492
:1003C000A90137121A43F360100C0A83C2A03068E7
:1003D00027D4B30038191A43F720A5091569428BB1
:1003E000D84C31CA1849449A506A90A70639181A4D
:1003F00043F7209531CA883222894823192D844138
:10040000616A9027073A0C1A433F4BA19E8D504FCB
:100410000E3B0E1A433F4BA19E8D501914E6013C32
:100420000D1A433FEB9CCC6E6A9AA7053D0E1A430A
:100430003FB783811E3718E8B9003E0D1A433FB31A
:10044000A8E56E669767033F121A43EF6014D2A4C3
:1004500092419D61508F11EA19401E1A43F720A561
:100460000945069188A44DA4445222A928A92851DF
:10047000486C52833C350041181A433F916E979067
:1004800025549954463318645292944296A70542D3
:10049000171A433FC560A431CAD80C541A2389489F
:1004A00022CA0CF6D40043131A433FD140238A08D2
:1004B00085C9A450291DE8690144181A433FC56045
:1004C000A431928824228948229288241ACD604F30
:1004D0000D45121A433FC960946C3918252B0783C8
:1004E0003C2D0046101A433FC9609049B61C8C92BF
:1004F000ED990047161A433FCD60238A0893358350
:10050000484A22D2180DF6B400481A1A433F8528EB
:1005100023CA8832A28C2833186444195146941196
:10052000E58901490F1A433FC5601013FAABC1209A
:100530004F0C4A0E1A433FC940D90F55833C39002E
:100540004B181A433F8528A30949520AD5203688FB
:1005500029541291C6484F0B4C0D1A433F49B2BF64
:100560001C0CF2B4004D1D1A433F8548A299681235
:10057000914922928824228992124989A42C12CB73
:10058000D3024E1A1A433F852823CA243215999262
:100590009A8A4C4526A40969527962004F191A4378
:1005A0003FCD2015CAA42429852C218BA424294DB4
:1005B0002835C8530350141A433FC96014D28434F9
:1005C000214D28345025DB3301511B1A433FCD20E8
:1005D00015CAA42429852C218BA424294D2835480B
:1005E0004AF3300052151A433FC560A4F19BD04036
:1005F000251169421A233D2D0053131A433FCD4064
:1006000054A38C2E9742492A33D85303540B1A43D0
:100610003FC12BA17F4F0E55181A433F852823CA8F
:100620008832A28C2823CA8832A21AD5204F0D56B0
:10063000161A433F812C128B8824A2469258249686
:10064000900DF5E400571B1A433F812C218B442465
:100650002592124945852491D84C341391444F0C6E
:1006600058171A433F8548130A4962839C50975094
:100670004934A2884A4F0B59121A433F452C22D2C3
:10068000845291584227F49E1C5A121A433FC56067
:10069000200CEA0C0B75C2C1404F0B5B0D1A43F7DF
:1006A0004025F47F38D0E3005C131A436F5299540D
:1006B0002695496552995446F330005D0C1A43EF74
:1006C00040D9FFD5408F045E131A437B52B74BC805
:1006D00022A98CA8469449E9B9055F0A1A433F7FCD
:1006E0003A38C81360091A435334CF7F0461111A92
:1006F000433FBB8152A81A68FC6890D0D3026216AF
:100700001A43AFD08BD1262392882422894832D134
:1007100028F6D40063101A433FC3814818B44C2A0A
:10072000077B5A0064171A433F24D96A11CA186517
:100730004419514694311A24F2C40065151A433FF6
:10074000C3414AA2116506038950290A0DF6B40077
:1007500066101A433F60904A0665838148E8F70CAB
:1007600067181A433FC3452863941165441951C65D
:10077000689048064503350068161A43AFD08BD100
:100780004423CA8832A28C2823CA88F2C400690D87
:100790001A43BB500F1D08FD3D39006A0F1A433F35
:1007A00040A8870E84FE616A20076B151A4373B256
:1007B0001B51449590ED12B2882A230AE969016C15
:1007C0000A1A43EF40D9FF9E1C6D181A433FB384A9
:1007D00062A29094484A242592124989A44492A77F
:1007E000056E161A433F33C568A211654419514678
:1007F000941165447962006F151A433FC3412A631F
:1008000024494952129126A31AE4A90170171A43E8
:100810003F33C568931149441291442499681423C5
:10082000A13D0471151A433FC345286394116544E3
:100830001951C6689048360672101A433F3BC96684
:1008400010C9883242EF590073111A433FC38128FF
:10085000999C2E3321CD604F0D74101A433F8D505B
:100860003618A484BE1CE8690175171A433F33513A
:1008700046941165441951C62892080D12796200F8
:1008800076111A433FB312513722492C121BEAC981
:100890000177191A433F2B59422229915494542429
:1008A00006914444331165F4C40078131A433F336E
:1008B0005148A21AE474BB842A63A4A70579161AC6
:1008C000433FB31291261492A822B1414E280CCA7C
:1008D000F608007A101A433FB3C120A8F330381845
:1008E000E869017B131A433F60264C2685C29C347D
:1008F000294C96EE71007C0A1A437BB2FFF7500038
:100900007D111A43F35268984C4A65C2A4D06C0F0B
:10091000057E0D1A433FC7A2484452B3E718A0080A
:100920001A433FFF2B00A10D1A433F4BA11E93AC6E
:1009300014FA08A21B1A433F20384825628A58241B
:1009400016894562919822A6080E72797200A31149
:100950001A433F60966C37D0250B85C1C19E18A401
:10096000151A433F452C33488432A95037A94122F8
:1009700013CB7301A5171A43AF2A22D2685291D81C
:1009800020271BCC84B2C14CA82707A60B1A437B97
:10099000B2F794BD8702A7191A43F740244C2A677F
:1009A000115546A44929724B6528231AE88100A8ED
:1009B000091A438B24CF7F0DA91F1A43F72015CAAC
:1009C000C422894122324A5425AA22A3486290882F
:1009D000C432A1D4204F0DAA121A43F34095890DB9
:1009E0005299542635D8F33100AB141A433FCB4803
:1009F0002A22528814B2882C228BE4D901AC0C1A1A
:100A0000433FB78381B23D1700AD0A1A433FEF065B
:100A10007BDE01AE151A43F72095D1241699449B2D
:100A2000C42294510DF27C03AF0A1A43C3833CFFE6
:100A30002900B00D1A43BB2E914B04F5FC1100B1F7
:100A4000111A433FCBB2C14095CC6307033D2D0043
:100A5000B20D1A43F34059A70B0EF67C0CB30E1AD5
:100A600043F340191B24AB067ABE06B4091A43931C
:100A70004ECF7F05B5171A433F3351469411654455
:100A80001951C666A2519808ED2100B6221A43F307
:100A9000603388640691CC209219445292582416EF
:100AA00089456291582416894562913C0EB70A1A0D
:100AB000433F2F857ACE01B80A1A433F7F1E0DCAE5
:100AC00001B9091A43B7B2F7FC00BA121A43F7206A
:100AD0009511654419514635C8F33500BB141A43C6
:100AE0003FB34C2C228BA824A2882822CAE45902A6
:100AF000BC1D1A43AB4813AA116552115524281185
:100B000045369184263158A424293D2D00BD1B1A59
:100B100043ABA89B542615892584894146944945B1
:100B20004499504633C8D302BE1E1A43EB205423C7
:100B3000D98424B18466900846448A5122A1490C84
:100B40001622494A4F0BBF121A433F4BA11E1414E1
:100B5000E60C451951683006C01A1A434F340FD2BB
:100B6000ED12B2842A93CA6806834C4A9252C8F2A4
:100B7000B400C11A1A43974E8FD1ED12B2842A9352
:100B8000CA6806834C4A9252C8F2B400C21B1A4388
:100B9000CF4C9287E87609594295496534834126BE
:100BA00025492964795A00C31C1A438F2215D14361
:100BB00074BB842CA1CAA4329AC1209392A414B20B
:100BC0003C2D00C41A1A438B240FD6ED12B2842A8E
:100BD00093CA6806834C4A9252C8F2B400C51B1AE5
:100BE00043932E11B44BE412B2482A93CA68068389
:100BF0004C4A9252C8F2B400C6191A433FD140A5DC
:100C00004BE41231452C328AA406AA4C4833C8D38F
:100C100002C7151A433FD140238A0885C9A4502929
:100C20001DC8A2413500C8131A4353348F188C9243
:100C30002D07A364E56090A705C9131A43974E8F4B
:100C4000188C922D07A364E56090A705CA131A4378
:100C5000CF4C92071C255B0E46C9CAC1204F0BCB57
:100C6000131A438B240F1D8C922D07A364E560900B
:100C7000A705CC111A434F348F180C62427F3518E8
:100C8000E48901CD101A43974E0F388809FDD560CD
:100C9000902706CE111A43CF4C121F0C62427F35AB
:100CA00018E48901CF111A438B248F1C0C62427FF8
:100CB0003518E48901D0181A433FC560A4319288E1
:100CC00014838C4424114944199BC19E1AD11C1AC7
:100CD000438F2215918B32A24C22539129A9A9C886
:100CE0005464429A9026952706D21B1A434F348F9C
:100CF00019A442999424A5902564919424A509A54A
:100D000006796A00D31B1A43974E0F19A44299948F
:100D100024A5902564919424A509A506796A00D498
:100D20001C1A43CF4C92470C52A14C4A9252C81203
:100D3000B2484A92D28452833C3500D51C1A438F64
:100D40002215D12306A950262549296409592425AD
:100D5000496942A9419E1AD61B1A438B248F1DA4B0
:100D600042999424A5902564919424A509A5067917
:100D70006A00D7131A433FB312514812DBCD242126
:100D8000512696A705D81C1A433FCD2091C9D84CAF
:100D900032838426D22692C848369A8C2631C8538C
:100DA00003D91A1A434F348F1065441951469411D0
:100DB000654419514654A31AE4A901DA1A1A439753
:100DC0004E0F10654419514694116544195146540B
:100DD000A31AE4A901DB1A1A43CF4C121765441970
:100DE00051469411654419514654A31AE4A901DCF3
:100DF0001A1A438B248F1465441951469411654483
:100E000019514654A31AE4A901DD141A43974E0F51
:100E10008845449A502A124BE884DE9303DE161A62
:100E2000433F493239188534214D48130A0D54C9BE
:100E30003C1300DF1C1A43F34095496552115524B9
:100E40009690456299544893CAA43289419E18E00D
:100E5000131A4377340F1E2885AA81C68F06093DD1
:100E60002D00E1131A433F40A7C70E9442D540E33B
:100E70004783849E16E2131A43F72E92870E9442FC
:100E8000D540E34783849E16E3141A43B72215D155
:100E900043074AA16AA0F1A341424F0BE4131A434E
:100EA0003F3092870E9442D540E34783849E16E5F7
:100EB000141A43932E11D463074AA16AA0F1A341E7
:100EC000424F0BE6181A433FB34142264949328349
:100ED00041242292A822AAC5204F0BE7111A433FB2
:100EE000C3814818B44C2A07AB68500EE8161A4361
:100EF0007B340F1EA4241A516630900895A2D0604E
:100F00004F0BE9171A433F40A7070F52128D2833A2
:100F10001848844A5168B0A705EA171A43F72E9279
:100F2000C70E52128D28331848844A5168B0A7055D
:100F3000EB171A433F3292870E52128D283318480E
:100F4000844A5168B0A705EC0D1A437B340F1D0885
:100F5000FD3D3900ED0D1A433F40A7870E84FE9EEC
:100F60001CEE0D1A43F72E92470E84FE9E1CEF0DC9
:100F70001A433F3092470E84FE9E1CF0191A43EF2D
:100F800022A71BA822B28128632411494412518D43
:100F90006A90A706F1191A43B72215D12315A38920
:100FA00046941165441951469411E58901F2161AC7
:100FB0004377348F1EA4324692942425116932AAB5
:100FC000419E1AF3171A433F40A7070F52192349AE
:100FD0004A9292883419D5204F0DF4171A43F72EF0
:100FE00092C70E521923494A9292883419D5204F3C
:100FF0000DF5181A43B72215D16307A98C91242542
:101000004949449A8C6A90A706F6171A433F3092D2
:10101000C70E521923494A9292883419D5204F0D90
:10102000F7101A433F4BA11E3A18E801423D390020
:10103000F8181A433FC3812863929064129212C930
:101040004693D12406796A00F9181A4377348F152C
:1010500065441951469411658C2289D02091270648
:10106000FA191A433F40A7878A32A28C2823CA88DC
:10107000324691446890C81303FB191A43F72E9225
:10108000478A32A28C2823CA88324691446890C885
:101090001303FC191A433F3092478A32A28C28234B
:1010A000CA88324691446890C81303FD191A433F19
:1010B00040A787C622224D2824514562839C5018A0
:1010C00094ED1100FE181A43AFD08BD126239288DD
:1010D0002422894832D12846427B0800FF191A434E
:1010E0003F309247C622224D2824514562839C50AE
:1010F0001894ED1100000000911DB42311241FBEAF
:10110000CFEFD8E0DEBFCDBF11E0A0E0B1E0EAEA6A
:10111000F4E502C005900D92A035B107D9F727E09C
:10112000A0E5B1E001C01D92AE36B207E1F718E0CC
:10113000CDE7D8E004C02197FE010E943528CC37C6
:10114000D107C9F70E9429200C94482A0C9400006A
:10115000E0919D06F0919E068091980680FF0CC05C
:1011600050E040E06BE070E088E996E009958091FE
:1011700098068E7F80939806E0919D06F0919E06DA
:1011800050E040E06AE070E088E996E00995009759
:1011900029F020919806216020939806089586ED05
:1011A00098E09093FF068093FE06089590E080E01B
:1011B000089581E090E00895E82FF0E0E15FFD4FB1
:1011C000849190E0982F88273196E4918E0F911D9D
:1011D000089590E0FC01E352FE4F249185509E4F0C
:1011E000FC018491882399F090E0880F991FFC01FD
:1011F000ED52FE4FA591B491FC01EF50FE4F859149
:1012000094918FB7F894EC91E22BEC938FBF0895F3
:101210002091AA01260F3327331F21323105ECF428
:101220002091D001FC0190E080E0243069F082E060
:101230000895A091AA012191AC0148575E4FA40FD7
:10124000B52FB11D2C930196861798F38091AA01B2
:10125000680F6093AA0180E0089581E008950895E1
:10126000CF93DF93AC01E0917E01F0917F01309745
:10127000F1F090917D0180917C019817C0F090E091
:10128000292F30E02617370754F4D901A45ABE4F4E
:10129000240F351FE90128812C939F5FF1CF109215
:1012A0007D0160937C01CB01DF91CF910994DF91A7
:1012B000CF9108950895E0917D0180917C01E81718
:1012C00030F4F0E0E45AFE4F808190E008958FEF13
:1012D0009FEF089590917D0180917C012FEF3FEF6A
:1012E000981748F4E92FF0E0E45AFE4F208130E0EF
:1012F0009F5F90937D01C901089580917C01909139
:101300007D01891B990B0895CF93DF93CB01EA01EF
:10131000642F0E940809CE01DF91CF910895CF93E9
:10132000DF931F92CDB7DEB7698361E0CE010196EE
:101330000E94080981E090E00F90DF91CF9108951D
:1013400090E0FC01E154FE4F2491FC01E352FE4F7A
:101350003491FC01E550FE4FE491EE23C9F02223C5
:1013600039F0233001F1A8F4213019F1223029F1AC
:10137000F0E0EE0FFF1FEF50FE4FA591B4918FB735
:10138000F894EC91611126C030953E233C938FBFB9
:1013900008952730A9F02830C9F0243049F780910A
:1013A00080008F7D03C0809180008F7780938000C4
:1013B000DFCF84B58F7784BDDBCF84B58F7DFBCF46
:1013C0008091B0008F778093B000D2CF8091B00031
:1013D0008F7DF9CF3E2BDACF1092D00181E0809340
:1013E000D2011092D10161E082E10E94A00961E086
:1013F00083E10E94A009E9EBF0E080818E7F808389
:1014000080818D7F808388E48093B80085E4809319
:10141000BC0008953FB7F89480915801909159010C
:10142000A0915A01B0915B0126B5A89B05C02F3F42
:1014300019F00196A11DB11D3FBFBA2FA92F982FFA
:101440008827BC01CD01620F711D811D911D42E0F5
:10145000660F771F881F991F4A95D1F70895AF929D
:10146000BF92CF92DF92EF92FF920F931F93CF9391
:10147000DF936C017B018B01040F151FEB015E01F3
:10148000AE18BF08C017D10759F06991D601ED9188
:10149000FC910190F081E02DC6010995892B79F727
:1014A000C501DF91CF911F910F91FF90EF90DF90D9
:1014B000CF90BF90AF900895FC01538D448D252FA0
:1014C00030E0842F90E0821B930B541710F0CF96DE
:1014D000089501970895FC01918D828D981761F010
:1014E000A28DAE0FBF2FB11D5D968C91928D9F5F27
:1014F0009F73928F90E008958FEF9FEF0895FC0106
:10150000918D828D981731F0828DE80FF11D858DB8
:1015100090E008958FEF9FEF0895FC01918D228D4B
:10152000892F90E0805C9F4F821B91098F739927D0
:10153000089582E092E00E948D0A21E0892B09F44F
:1015400020E0822F0895FC01A48DA80FB92FB11DB2
:10155000A35ABF4F2C91848D90E001968F739927E9
:10156000848FA689B7892C93A089B1898C918370C7
:1015700080648C93938D848D981306C00288F389C0
:10158000E02D80818F7D80830895EF92FF920F93ED
:101590001F93CF93DF93EC0181E0888F9B8D8C8D1F
:1015A00098131AC0E889F989808185FF15C09FB713
:1015B000F894EE89FF896083E889F98980818370D6
:1015C000806480839FBF81E090E0DF91CF911F9185
:1015D0000F91FF90EF900895F62E0B8D10E00F5FA6
:1015E0001F4F0F731127E02E8C8D8E110CC00FB67C
:1015F00007FCFACFE889F989808185FFF5CFCE0114
:101600000E94A30AF1CFEB8DEC0FFD2FF11DE35AE1
:10161000FF4FF0829FB7F8940B8FEA89FB89808196
:101620008062CFCFCF93DF93EC01888D8823B9F010
:10163000AA89BB89E889F9898C9185FD03C08081DD
:1016400086FD0DC00FB607FCF7CF8C9185FFF2CF5A
:10165000808185FFEDCFCE010E94A30AE9CFDF9103
:10166000CF91089580E090E0892B29F00E94990A9B
:1016700081110C9400000895EF92FF920F931F9335
:10168000CF93DF93DC01EA011996ED91FC911A9753
:10169000663171059CF4643171059CF46C30710500
:1016A000D1F16F30710509F453C0AE01CD01DF9166
:1016B000CF911F910F91FF90EF90099467317105C1
:1016C000A1F75C968D919C915D9702968370992706
:1016D0005D969C938E935C971D968D919C911E9721
:1016E00055962D913C915697821B930B01975696D8
:1016F0009C938E9355971B968D919C911C97539616
:101700002D913C915497821B930B019754969C9377
:101710008E935397CACF4C815D81288139811D9664
:101720008D919C911E97EE80FF800A811B818E19FE
:101730009F09801B910B9B838A831B968D919C91A3
:101740001C97841B950B821B930B99838883ADCFC9
:101750008A01EC01AC01455F5F4F6FE070E00995D5
:101760008B859C85AD85BE85F80180839183A2839E
:10177000B38381E090E0DF91CF911F910F91FF90B3
:10178000EF90089580579F4FFC018081082E000C38
:10179000990B01960895213069F038F0223079F0E4
:1017A000840F911D47FD9A950895860F911D67FD41
:1017B0009A950895841B910947FD93950895861B7A
:1017C000910967FD93950895213069F038F0223032
:1017D00079F0861B910967FD93950895840F911DFB
:1017E00047FD9A950895860F911D67FD9A95089576
:1017F000841B910947FD93950895DC011A964C913D
:101800001A97ED91FC911197249130E0042E02C0BB
:10181000359527950A94E2F7842F860F883068F073
:1018200031961196FC93EE93E49198E0941B01C0DD
:10183000EE0F9A95EAF72E2B88501A968C938FEF1D
:101840009FEF01C0880F6A95EAF78095822308957B
:10185000AC014D5E5F4FDC011596ED91FC9165E1A9
:1018600070E009945F926F927F928F929F92AF92F5
:10187000BF92CF92DF92EF92FF920F931F93CF937D
:10188000DF93EC01F62E642E8C0108591F4FF801EE
:101890007680C780F801D084D7185F2CDF1408F455
:1018A0005D2CF80184809580E4842E2D4C2D672DCD
:1018B000828193810E94CB0B5C012E2D4C2D672DD4
:1018C000C4010E94E40B6620D9F02EA12F8B2FA11A
:1018D000288F28A5298FBC8AAB8A9E8B8D8B852D5E
:1018E00090E09B8F8A8F2E2D30E03D8F2C8FCE0184
:1018F0000E94280CFD1470F0FD18C394712CCACFFF
:10190000F80123852111F6CF29A52F8B2AA5288F31
:101910002BA5E0CFF70CF801F682C782DF91CF91BB
:101920001F910F91FF90EF90DF90CF90BF90AF90FD
:101930009F908F907F906F905F900895CF93DF93EB
:10194000CDB7DEB728970FB6F894DEBF0FBECDBF78
:10195000DC0111964D915D916D917C9114974D83B1
:101960005E836F8378871A8219821C821B82159688
:10197000ED91FC91AE014F5F5F4F6CE070E0099517
:1019800028960FB6F894DEBF0FBECDBFDF91CF9182
:101990000895CF93DF93EC01AC014F5F5F4FED8172
:1019A000FE816FE070E00995CE01DF91CF910C943C
:1019B0009E0C809198068E7F809398061092A206C6
:1019C0001092A10681E090E09093B9068093B8064A
:1019D0001092FD061092FC0680930B0710925E0792
:1019E00010925F071092600789ED98E09093A0062F
:1019F00080939F068FE19DE090939E0680939D06C5
:101A00001092AA061092A9060E94CF080E94A80868
:101A100088E996E00E94C90C10926607109265074B
:101A2000109268071092670710926907EAE2F7E0E0
:101A30008FEF819397E0E733F907D9F708956C307A
:101A4000710551F06731710581F4DC011796ED9154
:101A5000FC9167E170E00994DC01A45ABF4F88E073
:101A6000FA0101900D928A95E1F781E090E00895E6
:101A7000EF92FF920F931F93CF93DF937C01EA01C4
:101A80008A01060F171FC017D10739F4DF91CF91D4
:101A90001F910F91FF90EF900895FE01449150E047
:101AA000D7015196ED91FC9130E020E060E170E0CB
:101AB000C70109952196E7CFAB01DC015196ED9165
:101AC000FC9130E020E06CE070E009940F931F93EC
:101AD000CF93DF938C01EB01209729F4DF91CF9115
:101AE0001F910F91089568EE73E0C8010E945C0D8C
:101AF0002197F2CFEF92FF920F931F93CF93C42FB2
:101B00007C0136ECE30EF11CD7013C9134238C01AF
:101B100009531F4F611122C0332329F0F80130818E
:101B20003423341315C0622F70E0DC015196ED911F
:101B3000FC9130E020E050E040E009959C2F90952A
:101B4000F801808189238083D7018C91C82BCC93A5
:101B5000CF911F910F91FF90EF900895332321F0C3
:101B6000F80130813423A1F7622F70E0DC01519637
:101B7000ED91FC9130E020E041E050E00995F80162
:101B800080818C2BE0CF2FE041E00C947A0D7F9286
:101B90008F929F92AF92BF92CF92DF92EF92FF927D
:101BA0000F931F93CF93DF938C01EB014C0188ECD3
:101BB000880E911CFE016491E62EE2942FE0E22251
:101BC000F62FFF707F2EEFEFEE0DEF3008F0D6C04E
:101BD000F0E0E351F24F0C943528FC0DFC0DFC0DA8
:101BE000BE0EBE0E260E3B0E520E610E6F0E930EF3
:101BF000BE0EBE0EBE0EA50E5E018FEFA81AB80A6D
:101C0000D4016C9166956170C8010E94C30DF12CDE
:101C1000A501B701C8010E94380DC72CD12C77202F
:101C200069F0AE0CBF1CF40160816170C8010E94B4
:101C3000C30DA501B601C8010E94380DFFEFEF1AD0
:101C4000FF0ACE0CDF1CCC0DDD1DB4CFD4016C918E
:101C50006170C8010E94C30DAE014F5F5F4FE72C5A
:101C6000F12CB701C8010E94380DBFEFEB1AFB0A37
:101C7000CE0DDF1D9FCFF401608166956095617088
:101C8000C8010E94C30DE72CF12C772039F0AE017A
:101C90004F5F5F4FB701C8010E94380DFFEFEF1A89
:101CA000FF0AE6CFFE0131966491E72DF0E0FE2FAA
:101CB000EE276E0F7F2F711DC8010E94660D2296C0
:101CC00079CFFE0131966491E72DF0E0FE2FEE27EB
:101CD0006E0F7F2F711DC8010E945C0DF0CFFE01B9
:101CE0003196F4903196E4902396D4016C91617012
:101CF000C8010E94C30DD8015396ED91FC915497F1
:101D000002C0F595E7957A94E2F7EF21EE294E2F80
:101D100050E05196ED91FC9130E020E060E170E000
:101D2000C801099547CFFE013196F4903196E490B1
:101D30002396F40160816170C8010E94C30DD8012F
:101D40005596ED91FC915697DBCF872D869586951C
:101D5000813061F020F0833069F021962BCF6170E3
:101D60002DE044E0C8010E947A0DF7CF61702EE0AB
:101D700042E0F8CF6370F4016083EFCFDF91CF9141
:101D80001F910F91FF90EF90DF90CF90BF90AF9099
:101D90009F908F907F900895CF93DF93EC01A8815F
:101DA000B981A217B307ACF4EB01E881F9814E17B2
:101DB0005F077CF4A417B5071CF4DC014D935C931A
:101DC0002E173F071CF4EB013983288381E090E054
:101DD00002C090E080E0DF91CF910895FC01258959
:101DE0003689E25AFF4F40815181241B350B37FD64
:101DF0000AC0349681E090E0408151812417350774
:101E000024F080E0089580E090E00895FC012389AB
:101E10003489E45AFF4F40815181241B350B37FD33
:101E20000AC0349681E090E0408151812417350743
:101E300024F080E0089580E090E008950F931F93D0
:101E4000CF93DF9300D000D0CDB7DEB78C01FC017B
:101E5000178E168E848D958D8130910509F484C07E
:101E600034F4892B09F440C081E090E044C0823012
:101E7000910509F4AAC00397B9F7C8010E94060F9B
:101E8000892BB9F1F8018589968901969C838B830A
:101E9000228D338D821B930B9A838983E25AFF4FE5
:101EA00040815181349620813181240F351FBE013C
:101EB0006D5F7F4FCE0101960E94CC0E892BC9F039
:101EC0008B819C8129813A81AC01421B530BF80123
:101ED000538F428F019725893689281B390B378FFD
:101EE000268F968B858BC0CFC8010E94EE0E892B62
:101EF00059F490E080E00F900F900F900F90DF91D9
:101F0000CF911F910F910895F801238934893A8365
:101F10002983828D938D820F931F9C838B83E45A38
:101F2000FF4F40815181349620813181240F351F2C
:101F3000BE016D5F7F4FCE0101960E94CC0E892BB2
:101F4000C1F229813A81F80183899489A901481B4A
:101F5000590B578F468F348B238B8B819C81821B2F
:101F6000930B938F828F80CFC8010E94060F892B1D
:101F700009F4BFCFF801258936893A832983828DF8
:101F8000938D820F931F9C838B83E25AFF4F408176
:101F90005181349620813181240F351FBE016D5F40
:101FA0007F4FCE0101960E94CC0E892B09F4A1CF60
:101FB00029813A81F80185899689A901481B590B25
:101FC000578F468F368B258BC8CFC8010E94EE0EE7
:101FD000892B09F48ECFF8018389948901969C831B
:101FE0008B83228D338D821B930B9A838983E45AD2
:101FF000FF4F40815181349620813181240F351F5C
:10200000BE016D5F7F4FCE0101960E94CC0E892BE1
:1020100009F46FCF8B819C8129813A81AC01421BED
:10202000530BF801538F428F019723893489281B62
:10203000390B378F268F948B838B16CFEF92FF92BD
:102040000F931F93CF93DF9300D000D0CDB7DEB7AF
:102050006F30710509F489C08C01603171055CF441
:102060006A307105C9F16B30710509F477C0C80198
:102070000E941F0D68C06431710509F483C0653189
:102080007105A9F70E941E0F892B09F46BC0D801B6
:102090005C968D919C918130910509F49BC08230B2
:1020A000910509F4ACC065E771E0892B09F494C08F
:1020B000F801E588F6888FE990E08E199F09968BE4
:1020C000858B6FE071E0C8010E94C70DD80156965C
:1020D000FC92EE92559783C084E690E09A838983C0
:1020E00082E490E09C838B83D8015196ED91FC9122
:1020F0007801B7ECEB0EF11CD7018C9183FF08C07F
:1021000030E020E050E040E06BE070E0C80109956D
:10211000F7018081877F8083F801EA53FF4F1082A7
:10212000D8015196ED91FC919E012F5F3F4F50E0F9
:1021300040E06AE070E0C8010995009721F0F701DE
:102140002081286020830F900F900F900F90DF91D7
:10215000CF911F910F91FF90EF90089568E071E08B
:102160000E94C70D81E090E0EECF80E890E0DA01B8
:1021700011969C938E9380EA90E013969C938E9395
:102180001297F0CF0E94060F892B61F3C8010E94BD
:10219000EE0E892B39F36AEE70E0C8010E94C70D7C
:1021A000F80187898983808D8A83818D8B8301885B
:1021B000F289E02D9E012F5F3F4F41E050E063E147
:1021C00070E0C80109952EE042E061E0C8010E947C
:1021D0007A0DC8CF64E571E0C8010E94C70DF8010F
:1021E00087898983808D8A83818D8B83428D538DEE
:1021F0000188F289E02D9E012F5F3F4FE0CFF8016B
:10220000E388F4888FE790E08E199F09948B838B85
:1022100063E371E0C8010E94C70DD8015496FC9297
:10222000EE925397DCCFCF93DF936B307105B9F00B
:102230006F307105D1F06A30710599F4EC016AE0F4
:1022400070E00E941E10009739F063E971E0CE0142
:102250000E94C70D81E090E0DF91CF9108956BE07F
:1022600070E0DF91CF910C941E1080E890E0FA01AD
:102270009183808380EA90E093838283EBCFFC019B
:1022800020818681280F208384859585428553850A
:10229000840F951F958784874085518584179507FE
:1022A0003CF03281230F2083841B950B9587848714
:1022B00008952F923F924F925F926F927F928F92EA
:1022C0009F92AF92BF92CF92DF92EF92FF920F93C5
:1022D0001F93CF93DF9300D01F92CDB7DEB7FC01E1
:1022E0006731710509F0DBC0828D938D6C0121E0AF
:1022F000C21AD1082601D7FC2C01559447945F01DE
:1023000086E2A80EB11C7F011F01AAE22A0E311C31
:102310008F0166246394712C88248A94982CD501AB
:1023200013962C9113974D915D01D801D3964C9340
:10233000D397241B330BD7963C932E93D697DB96DB
:10234000DC92CE92DA97D5967C926E92D497C901A0
:10235000B6010E942128D801D9967C936E93D89714
:1023600037FF0BC0319521953109D7963C932E93B9
:10237000D697D5969C928E92D497D801D6968D9169
:102380009C91B6010E942128D801DD969C938E93E2
:10239000DC97DF965C924E92DE97D2964C93025F6A
:1023A0001F4F0215130509F0BACF6F015F01B2E3A9
:1023B000AB0EB11CCF010E941E0F892B09F46FC018
:1023C000D6015E96ED91FC913E2FD701D8962C91C7
:1023D000D897329F202D1124D2962C93D297DA963B
:1023E0006D917C91DB97DC964D915C91E49FC001EF
:1023F000E59F900DF49F900D1124AB0177FF02C073
:102400004F5F5F4F55954795840F951F0E94212878
:10241000D701D4964D915C91D59757FD58C0620F66
:10242000D2966C93D701DF969C938E93DE97D296CB
:102430008C91D297D3969C91D397890FD2968C93F7
:10244000BEE0EB0EF11C0E151F0509F0BECFF60124
:10245000848D958D81309105F1F182309105F1F1F6
:10246000892B09F04CC065E771E0C6010E94C70DD9
:1024700010E000E07601F0E4EF0EF11C46012EE4DE
:10248000820E911CF601828D938D081719070CF4AA
:1024900047C02EE042E061E0C6010E947A0D81E073
:1024A00090E00F900F900F90DF91CF911F910F91BF
:1024B000FF90EF90DF90CF90BF90AF909F908F9064
:1024C0007F906F905F904F903F902F900895261BC4
:1024D000D2962C93A7CF64E571E0C7CF0389148906
:1024E0008FE790E0801B910B948B838B63E371E00B
:1024F000C6010E94C70DF601148B038BB9CF058965
:1025000016898FE990E0801B910B968B858B6FE08D
:1025100071E0C6010E94C70DF601168B058BA8CF8E
:10252000D601D2968C918983F70180818A83D40168
:102530008C918B83D6015196ED91FC919E012F5F7A
:102540003F4F41E050E063E170E0C6010995C501ED
:102550000E943F11C7010E943F11C4010E943F1118
:102560000F5F1F4F8FCF2F923F924F925F926F92CC
:102570007F928F929F92AF92BF92CF92DF92EF9213
:10258000FF920F931F93CF93DF93EC01462E3C01F4
:1025900025ED620E711CF30150807C01F3EDEF0E0E
:1025A000F11CF701A080B1806C01F1EDCF0ED11CC0
:1025B000F601808091808C010C5F1F4FF1E05F1667
:1025C00009F43FC05F1690F122E0521609F444C0AE
:1025D00083E0581609F44BC0FE01E259FF4F918287
:1025E00080823296B182A082389650827097808124
:1025F00091814596E0E6E41508F044C0FE01E457F9
:10260000FF4F20813181820F931F9C012F5F3F4F2D
:10261000F9014491442309F4DDC0FC0144914416BE
:10262000C9F1F9012491820F911DEFCFFC01E65908
:10263000FF4F0190F081E02DC8010995A80EB91E49
:10264000CBCFFC01E659FF4F0190F081E02DC8018E
:102650000995881A990AC0CFFC01E659FF4F0190ED
:10266000F081E02DC8010995A81AB90AB5CFFE017D
:10267000E659FF4F0190F081E02DC8010995880EC1
:10268000991EAACFF0E4F41508F0BFCFFE01E6577B
:10269000FF4FB7CF009709F49DC05E01FCE6AF0E77
:1026A000B11CF50112860296918380837196608138
:1026B000C5010E94FD0BF501808772966081C501FE
:1026C0000E94FD0B482EF501818773962080622DB4
:1026D000C5010E94FD0B982EFE01E058FF4F80803F
:1026E000682DC5010E94FD0B382EFE01EF57FF4FEC
:1026F0005080652DC5010E94FD0B5A9441E050E0C9
:102700009A0101C0220F5A94EAF7582E521AF50185
:10271000808518160CF04BC02A94CA0101C0880F9E
:102720002A94EAF7981A2484340C8A9401C0440F3E
:102730008A94EAF7842E8318222D482D692D8281F0
:1027400093810E94CB0BF50193838283222D482D28
:10275000692D848195810E94E40BF5019583848322
:10276000168217824E01FBE78F0E911CC458DF4F73
:10277000F4016081C5010E94FD0B282E6881C5010E
:102780000E94FD0B382E40E0622DC8010E94320CE1
:1027900041E0632DC8010E94320C61E0C5010E9436
:1027A000FD0B8111F0CFF501878184150CF3852D88
:1027B000550C990BF3012081213059F170F0F6018D
:1027C000223009F0F70120813181281B390B318338
:1027D00020830AC090E080E0EDCFF60120813181B6
:1027E000820F931F9183808381E090E0DF91CF91EE
:1027F0001F910F91FF90EF90DF90CF90BF90AF901F
:102800009F908F907F906F905F904F903F902F9010
:102810000895F701E3CF682F84E996E00C94B31292
:102820008EBD00000DB407FEFDCF8EB5089508954E
:1028300090E080E00895FB0101900020E9F73197D6
:10284000AF01461B570BDC01ED91FC910280F38137
:10285000E02D0994CF93DF93EC01E881F9818E8517
:102860009C852A8522A793A784A78A899B89DF0153
:10287000AF52BF4F2889398911963C932E931296F7
:102880008D939C9366E371E0CF010E941B148881B5
:102890009981DC01AF52BF4F2D913C9111973D8B37
:1028A0002C8BFC01ED52FF4F208131812F5F3F4F78
:1028B000318320833F8B2E8B20813181225F3F4FDC
:1028C000488959894D935C9331832083598F488F70
:1028D000208131813B8F2A8F6BE371E00E941B14B2
:1028E00068E371E0888199810E941B148881998135
:1028F000FC01EF52FF4F208131813D8F2C8F8D5293
:102900009F4FFC01808191819F8F8E8FDF91CF91AE
:102910000895CF93DF9385ED8093BC00809184016F
:1029200090918501A0918601B09187010796A11D24
:10293000B11D23E0B695A795979587952A95D1F770
:102940002091BC0024FD03C01092D00136C04091FC
:102950008401509185016091860170918701452B1A
:10296000462B472B69F30097A105B10541F025E3FC
:102970002A95F1F700000197A109B109E1CF8091F3
:10298000830191E0909382018823B9F0C091B8004F
:10299000D091BA008091BC008A7B8093BC0060E03B
:1029A00082E10E94A00960E083E10E94A0090E94E8
:1029B000EC09D093BA00C093B800DF91CF9108958D
:1029C000CF93DF93EC01FC01E05BFF4F80819181AD
:1029D000009711F00E94F2288AAD9BAD009721F07C
:1029E000DF91CF910C94F228DF91CF910895EF926F
:1029F000FF920F931F93CF93DF93EC017B018A012A
:102A000088819981009729F02A813B812417350715
:102A100088F4B8016F5F7F4F0E947B29009791F087
:102A2000998388831B830A832C813D81232B11F496
:102A3000FC0110821D830C83B701888199810E945B
:102A4000412A0CC088819981009711F00E94F228D8
:102A5000198218821D821C821B821A82CE01DF918C
:102A6000CF911F910F91FF90EF900895FC0111827B
:102A70001082138212821582148250E040E065E4D5
:102A800071E00C94F714FB01DC0111961C921E926C
:102A900013961C921E92129715961C921E921497D2
:102AA0008617970749F0608171816115710521F0E2
:102AB000448155810C94F71408950F931F93CF937D
:102AC000DF93EC018B01FB018081918199838883E5
:102AD000828193819B838A83848195819D838C836A
:102AE00086819781A085B1858E839F83A887B987CA
:102AF000828593859B878A87848595859D878C872A
:102B0000868597859F878E8780899189998B888B09
:102B1000828993899B8B8A8B848995899D8B8C8BE9
:102B2000868997899F8B8E8B808D918D998F888FC9
:102B3000828D938D9B8F8A8F848D958D9D8F8C8FA9
:102B4000868D978D9F8F8E8F80A191A1A2A1B3A119
:102B500088A399A3AAA3BBA384A195A1A6A1B7A169
:102B60008CA39DA3AEA3BFA380A591A5A2A5B3A549
:102B700088A799A7AAA7BBA784A595A5A6A5B7A529
:102B80008CA79DA7AEA7BFA780A991A999AB88AB39
:102B900082A993A99BAB8AAB84A995A9A6A9B7A939
:102BA0008CAB9DABAEABBFAB80AD91AD99AF88AFF9
:102BB000665C7F4FCE01CA960E944315F801E05C27
:102BC000FF4F80819181FE01E05CFF4F9183808304
:102BD000F801EE5BFF4F80819181FE01EE5BFF4FBC
:102BE00091838083F801EC5BFF4F80819181A2810A
:102BF000B381FE01EC5BFF4F80839183A283B3839B
:102C0000F801E85BFF4F80819181A281B381FE01D1
:102C1000E85BFF4F80839183A283B383F801E45B79
:102C2000FF4F80819181FE01E45BFF4F91838083A0
:102C3000F801E25BFF4F80819181FE01E25BFF4F73
:102C400091838083B801605B7F4FCE01805B9F4F93
:102C50000E944315F801EA5AFF4F80819181A281B9
:102C6000B381FE01EA5AFF4F80839183A283B3832D
:102C7000F801E65AFF4F80819181A281B381FE0164
:102C8000E65AFF4F80839183A283B383F801E25A0F
:102C9000FF4F80819181FE01E25AFF4F9183808333
:102CA000F801E05AFF4F80819181A281B381FE013A
:102CB000E05AFF4F80839183A283B383F801EC59DC
:102CC000FF4F80819181FE01EC59FF4F91838083FA
:102CD000F801EA59FF4F80819181FE01EA59FF4FC7
:102CE00091838083F801E859FF4F80819181A2810F
:102CF000B381FE01E859FF4F80839183A283B383A0
:102D0000F801E459FF4F80819181A281B381FE01D6
:102D1000E459FF4F80839183A283B383F801E05984
:102D2000FF4F80819181C059DF4F99838883DF9164
:102D3000CF911F910F910895CF92DF92EF92FF9262
:102D40000F931F93CF93DF937C01EA018901FB016D
:102D50003A97EC30F10508F0BEC0EF54F94E0C94F0
:102D60003528E31679179D17A817B317B717BD179E
:102D7000C117CA17D717D716BD1683E9E80EF11C7D
:102D8000209709F4A8C0F8019081992341F0F70138
:102D9000808160E0913009F061E00E94A009F801B3
:102DA00081810E9410140E5F1F4F2197E9CFC20F3F
:102DB000D31FC017D10709F48EC0F80181918F018C
:102DC0000E941014F6CFFC01EE56FF4F80818F3F1A
:102DD00011F00E94E908F701ED56FF4F80810E9433
:102DE000E908F701EC56FF4F80818F3F11F00E94F8
:102DF000E908CFB7F89480915201811124C0E5E031
:102E0000F2E08491E7EEF1E09491E82FF0E0EE0F2C
:102E1000FF1FED52FE4FA591B491EC91E92321F4EF
:102E200061E08AE00E94A0098AE00E94E9088CB56E
:102E300080618CBD8CB580648CBD8DE00E94E908FA
:102E40008BE00E94E908809152018F5F80935201CC
:102E5000CFBFF8012081318150E040E060E07AECA2
:102E60008AE99BE30E945625C12C62E1D62E6AE7CF
:102E7000E62EF12C80E02C153D054E055F0540F453
:102E8000F694E794D794C7948F5F8630A1F787E0D4
:102E9000982F906A969580958170209151012223F8
:102EA00061F02FB7F894309151013130F9F43DB30E
:102EB000309350013DB33DBB2FBF9CBD8DBD8CB544
:102EC0008C7F8CBD8DB58E7F8DBD8CB5837F8CBD89
:102ED0008CB58F7D8CBD81E090E0DF91CF911F910B
:102EE0000F91FF90EF90DF90CF90089520935001C5
:102EF000E4CF80915101882351F09FB7F89420913D
:102F00005101809150012130B1F48DBB9FBF9FB71B
:102F1000F89480915201882319F0815080935201D6
:102F200080915201811105C08CB58F7B8CBD1092B0
:102F300051019FBFD0CF8FBFEACF4230510558F229
:102F4000CC0FDD1FCC0FDD1F25972197F1F7C3CFE5
:102F5000FC01EE56FF4F80816C2F8F3F09F4BBCFF1
:102F60000E94A009B8CFFC01EC56FF4FF4CFFC0142
:102F7000ED56FF4F642F8081F3CF842F0E941014F1
:102F8000AACF209709F4A7CFF80180810E941014DE
:102F90002197F7CF209709F49ECFF80180810E94F6
:102FA0001014F80181810E9410142197F3CF20970B
:102FB00009F491CFF80180810E941014F8018181F9
:102FC0000E941014F80182810E9410142197EFCF03
:102FD0006F927F928F929F92AF92BF92CF92DF9229
:102FE000EF92FF920F931F93CF93DF93CDB7DEB78E
:102FF000C055D1090FB6F894DEBF0FBECDBF7C011E
:10300000ADB6BEB68DB79EB78E199F090FB6F894B0
:103010009EBF0FBE8DBF0DB71EB70F5F1F4F8896A7
:10302000F8011192E817F907E1F7CE018896FE0141
:10303000319611928E179F07E1F7FE01B99681E054
:1030400090E08C0F9D1F815B9F4F7E2E6F2E119203
:10305000E817F907E1F748018E0C9F1C68018C14F2
:103060009D0409F43DC02FB7F894809154019091CC
:103070005501A0915601B09157012FBF8093FE01D9
:103080009093FF01A0930002B093010286EF91E0BC
:103090000E946A0997FF80C32FB7F894809154016A
:1030A00090915501A0915601B09157012FBF4091C9
:1030B000FE015091FF016091000270910102841B9A
:1030C000950BA60BB70B4091FA015091FB01609153
:1030D000FC017091FD0184179507A607B707B0F2B0
:1030E000F801808181114AC08091190390911A03DF
:1030F00020911703309118033093660720936507DA
:1031000090936807809367078FEF8093BE06809344
:10311000BF061092C0066801FFEFCF1ADF0AC60192
:10312000801B910B8E159F0530F4F60181916F0184
:103130000E940B14F4CF42E050E063E471E082E0BF
:1031400092E00E942F0A0FB6F894BEBE0FBEADBE2D
:10315000C05BDF4F0FB6F894DEBF0FBECDBFDF916F
:10316000CF911F910F91FF90EF90DF90CF90BF9084
:10317000AF909F908F907F906F900895813039F538
:1031800080911D0390911E0320911B0330911C031D
:1031900030936607209365079093680780936707CD
:1031A0008FEF8093BE068093BF061092C006680121
:1031B000FFEFCF1ADF0AC601801B910B8E159F050A
:1031C00010F6F60181916F010E940B14F4CF82304A
:1031D00009F006C1E0900303F090040380912103FD
:1031E00090912203F701EF52FF4F20911F0330917E
:1031F0002003318320833296918380838091110351
:1032000090910F0320910D03F70122A793A784A7A4
:10321000E0910703F09108038081882309F47CC0C2
:10322000872D962D0E94D4236C0190936A0380937E
:1032300069032FEF33E0DC010E943B2824E630E0F5
:1032400040E050E00E94F524309374032093730310
:10325000B601DD0C880B990B0E94FC2320E030E0C6
:1032600048EC52E40E94F42520E030E0A9010E94DD
:1032700088259B01AC0120936B0330936C03409332
:103280006D0350936E0367EC71E780E092E40E9457
:103290009C262BE338EA43E05DE30E9437242BE3CE
:1032A00038EA43E05DE30E94872520E030E44CE902
:1032B00055E40E94372460936F03709370038093EA
:1032C000710390937203672D762DC7010E941B1422
:1032D000809121039091220320911F0330912003BC
:1032E000309366072093650790936807809367077C
:1032F0008FEF8093BE068093BF061092C006F80140
:1033000081810E940B14F80182810E940B14F80144
:1033100083810E940B1417CF872D962D0E94D423F2
:103320009093460380934503BC01990F880B990B3A
:103330000E94FC2320E030E048EC52E40E94F42597
:1033400020E030E0A9010E9488259B01AC01209378
:103350004703309348034093490350934A0367EC73
:1033600071E780E092E40E949C262BE338EA43E078
:103370005DE30E9437242BE338EA43E05DE30E94DB
:10338000872520E030E44CE955E40E94372460931F
:103390004B0370934C0380934D0390934E03209105
:1033A0004F033091500330935203209351030E94F6
:1033B00066269B01AC01AFEFB3E00E94142520E22A
:1033C0003EE440E050E00E94F524CA01B9010E94A9
:1033D000FC230E9466267093500360934F0373CFC3
:1033E000803149F580918B0390918C032091890362
:1033F00030918A033093660720936507909368079E
:10340000809367071092BE0682EA8093BF068FEF13
:103410008093C0066801FFEFCF1ADF0AC601801B48
:10342000910B8E159F0508F08ECEF60181916F01EC
:103430000E940B14F3CF813149F580918F03909155
:10344000900320918D0330918E0330936607209373
:10345000650790936807809367071092BE0682EA1B
:103460008093BF068FEF8093C0066801FFEFCF1AED
:10347000DF0AC601801B910B8E159F0508F063CEF5
:10348000F60181916F010E940B14F3CF823149F54F
:103490008091930390919403209191033091920332
:1034A00030936607209365079093680780936707BA
:1034B0001092BE0682EA8093BF068FEF8093C0060B
:1034C0006801FFEFCF1ADF0AC601801B910B8E1532
:1034D0009F0508F038CEF60181916F010E940B1410
:1034E000F3CF803249F58091FD039091FE03209146
:1034F000FB033091FC03309366072093650790939C
:103500006807809367078FEF8093BE068CE38093F4
:10351000BF061092C0066801FFEFCF1ADF0AC6018E
:10352000801B910B8E159F0508F00DCEF601819141
:103530006F010E940B14F3CF813249F58091010491
:10354000909102042091FF033091000430936607AC
:103550002093650790936807809367078FEF8093A8
:10356000BE068CE38093BF061092C0066801FFEF91
:10357000CF1ADF0AC601801B910B8E159F0508F03C
:10358000E2CDF60181916F010E940B14F3CF8232DC
:1035900049F580910504909106042091030430912F
:1035A000040430936607209365079093680780931F
:1035B00067078FEF8093BE068CE38093BF0610925F
:1035C000C0066801FFEFCF1ADF0AC601801B910B0E
:1035D0008E159F0508F0B7CDF60181916F010E940D
:1035E0000B14F3CF803349F580916F0490917004F0
:1035F00020916D0430916E04309366072093650727
:1036000090936807809367078FEF8093BE061092B0
:10361000BF0684EC8093C0066801FFEFCF1ADF0A73
:10362000C601801B910B8E159F0508F08CCDF6010D
:1036300081916F010E940B14F3CF813349F5809182
:10364000730490917404209171043091720430934A
:1036500066072093650790936807809367078FEF4D
:103660008093BE061092BF0684EC8093C00668016A
:10367000FFEFCF1ADF0AC601801B910B8E159F0545
:1036800008F061CDF60181916F010E940B14F3CF18
:10369000823349F5809177049091780420917504E4
:1036A00030917604309366072093650790936807FE
:1036B000809367078FEF8093BE061092BF0684EC5D
:1036C0008093C0066801FFEFCF1ADF0AC601801B96
:1036D000910B8E159F0508F036CDF60181916F0193
:1036E0000E940B14F3CF803451F58091F902909130
:1036F000FA022091F7023091F80230936607209386
:10370000650790936807809367078BED8093BE06EB
:1037100084E58093BF0681E68093C0066801FFEFD1
:10372000CF1ADF0AC601801B910B8E159F0508F08A
:103730000ACDF60181916F010E940B14F3CF803501
:1037400009F001CD8091C7029091C8022091C50275
:103750003091C602309366072093650790936807FF
:10376000809367078DE38093BE0684E58093BF0650
:1037700087E68093C0066801FFEFCF1ADF0AC60113
:10378000801B910B8E159F0508F0DDCCF601819111
:103790006F010E940B14F3CFF60181936F015FCC90
:1037A0001F920F920FB60F9211242F933F934F93B6
:1037B0005F936F937F938F939F93AF93BF93EF9399
:1037C000FF938091B900887F803609F44AC0F0F5F4
:1037D000883209F4A7C018F5803109F49BC0B8F409
:1037E000882309F4F9C0883009F494C0FF91EF915F
:1037F000BF91AF919F918F917F916F915F914F9109
:103800003F912F910F900FBE0F901F901895883108
:1038100009F488C0803251F78093CF0114C08034FE
:1038200009F49DC040F48033B9F38833F9F68093EE
:10383000CF0185ECB0C0803509F485C0883509F426
:1038400096C0883499F60E948914D0CF883909F43B
:103850008CC038F5883729F050F4883611F080375D
:1038600029F683E08093D0011092CE0157C08838AA
:1038700009F47BC0803919F0803809F0B7CF809106
:10388000CE01803208F071C0E091CE0181E08E0F50
:103890008093CE018091BB00F0E0E255FE4F808323
:1038A0003DC0803B39F0E0F4803A09F479C0883AB1
:1038B00009F09CCF84E08093D0011092AB0110926C
:1038C000AA01E091A801F091A90109958091AA01AE
:1038D00081110FC081E08093AA011092880109C074
:1038E000803C09F4A6CF883C09F4A3CF883B09F0BB
:1038F0007DCFE091AB0181E08E0F8093AB01F0E0D2
:10390000E857FE4F80818093BB009091AB0180917E
:10391000AA0129C08091F5018093BB0085EC8093BA
:10392000BC0064CF9091F4018091F301981758F591
:10393000E091F40181E08E0F8093F401F0E0ED520C
:10394000FE4F8081E9CFE091F40181E08E0F8093FA
:10395000F4018091BB00F0E0ED52FE4F8083909126
:10396000F4018091F3019817C8F285E8D8CFE0916F
:10397000F40181E08E0F8093F4018091BB00F0E0B0
:10398000ED52FE4F80838091D20181115CCF81E0A6
:103990008093D10184EA8093BC001092D00126CF9D
:1039A00085EC8093BC001092D0018091CE018032D2
:1039B00030F4E091CE01F0E0E255FE4F10826091CC
:1039C000CE0170E0E091AC01F091AD018EEA91E0A2
:1039D00009951092CE010ACF1092CF0134CF1F92D9
:1039E0000F920FB60F9211242F933F938F939F93B3
:1039F000AF93BF938091540190915501A0915601CE
:103A0000B09157013091530123E0230F2D3758F522
:103A10000196A11DB11D20935301809354019093F1
:103A20005501A0935601B093570180915801909190
:103A30005901A0915A01B0915B010196A11DB11DE0
:103A40008093580190935901A0935A01B0935B0160
:103A5000BF91AF919F918F913F912F910F900FBE8A
:103A60000F901F90189526E8230F0296A11DB11DF7
:103A7000D2CF1F920F920FB60F9211242F933F9324
:103A80004F935F936F937F938F939F93AF93BF9366
:103A9000EF93FF9382E092E00E94A30AFF91EF91DF
:103AA000BF91AF919F918F917F916F915F914F9156
:103AB0003F912F910F900FBE0F901F9018951F925E
:103AC0000F920FB60F9211242F938F939F93EF9322
:103AD000FF93E0911202F09113028081E0911802AD
:103AE000F091190282FD1BC0908180911B028F5FB3
:103AF0008F7320911C02821741F0E0911B02F0E0CD
:103B0000EE5FFD4F958F80931B02FF91EF919F9188
:103B10008F912F910F900FBE0F901F90189580815D
:103B2000F4CF2F923F924F925F926F927F928F923B
:103B30009F92AF92BF92CF92DF92EF92FF920F933C
:103B40001F93CF93DF93E6EFF1E01382128288EEAA
:103B500093E0A0E0B0E084839583A683B7832AE056
:103B600031E031832083E2E0F2E013821282848329
:103B70009583A683B7838CE191E09183808385EC64
:103B800090E09587848784EC90E09787868780EC27
:103B900090E0918B808B81EC90E0938B828B82EC18
:103BA00090E0958B848B86EC90E0978B868B118EC2
:103BB000128E138E148E04E916E0D80113961C920F
:103BC0001E9212978EE291E08D939C930E94D90CE5
:103BD0008EE291E0F801918380830E94D90C83E109
:103BE00091E1909362078093610789E591E1909359
:103BF00064078093630789E080932A0788E08093B5
:103C00002B078AE080932C07E4E0F2E0E491F0E0F7
:103C1000EE0FFF1FEF50FE4F859194919093380760
:103C200080933707E6EEF1E0E491E0935107E3E09B
:103C3000F2E0E491F0E0EE0FFF1FEF50FE4F8591B0
:103C4000949190933A0780933907E5EEF1E0E4917F
:103C5000E0935207E5E0F2E0E491F0E0EE0FFF1FA1
:103C6000EF50FE4F8591949190933C0780933B07D2
:103C7000E7EEF1E0E491E09353078EE291E0D801A2
:103C80008D939C93C2E2D6E019830883E1E2F6E0CB
:103C9000FD83EC8318A619A61AA61BA61CAA1DAAAA
:103CA0001EAA1FAA8CE596E00E94361510926506A2
:103CB0001092640682E796E00E943615109278060C
:103CC0001092790610927A0610927B061092820664
:103CD000109283061092840610928506109289062F
:103CE00010928806198A188A83E690E09B8B8A8B4B
:103CF0008AEF97E1A0EBB3E38E839F83A887B98710
:103D000088E290E0A0E0B0E088A399A3AAA3BBA3B7
:103D100080E293E0A0E0B0E08CA39DA3AEA3BFA39C
:103D2000A3E0B0E0BB83AA8322242A94312C3B86F3
:103D30002A863D862C861F861E86CFEAD5E019830B
:103D40000883E1E2F6E0FD83EC8318A619A61AA623
:103D50001BA61CAA1DAA1EAA1FAA89EE95E00E94F6
:103D600036151092F2051092F1058FEF95E00E9442
:103D7000361510920506109206061092070610924C
:103D8000080610920F06109210061092110610925B
:103D900012061092160610921506198A188A82E4E5
:103DA00090E09B8B8A8B4BEF842E4FED942E4CE052
:103DB000A42E42E3B42E8E829F82A886B98650E953
:103DC000C52EDD24D394E12CF12CC8A2D9A2EAA2FD
:103DD000FBA260E4462E6FE1562E612C712C4CA2A2
:103DE0005DA26EA27FA281E090E09B838A831B8606
:103DF0001A8682EA90E09D878C873F862E86CDE3E7
:103E0000D5E01983088381E296E09D838C8318A610
:103E100019A61AA61BA61CAA1DAA1EAA1FAA87E7D6
:103E200095E00E9436151092800510927F058DE86E
:103E300095E00E9436151092930510929405109209
:103E400095051092960510929D0510929E05109270
:103E50009F051092A0051092A4051092A305198A3F
:103E6000188A81E290E09B8B8A8B8E829F82A88643
:103E7000B986C8A2D9A2EAA2FBA24CA25DA26EA2F8
:103E80007FA282E090E09B838A833B862A868CE334
:103E900090E09D878C871F861E86CBECD4E019832B
:103EA0000883A1E2B6E0BD83AC8318A619A61AA6C2
:103EB0001BA61CAA1DAA1EAA1FAA85E095E00E94A7
:103EC000361510920E0510920D058BE195E00E94BB
:103ED000361510922105109222051092230510929A
:103EE000240510922B0510922C0510922D0510928E
:103EF0002E051092320510923105198A188A1B8AF4
:103F00001A8A83EC90E0A6E8B1E38E839F83A887AA
:103F1000B98780E293E0A0E0B0E088A399A3AAA3C8
:103F2000BBA388E692E4A0E0B0E08CA39DA3AEA37F
:103F3000BFA3A3E0B0E0BB83AA833B862A861D868D
:103F40001C86E4ECF0E0FF87EE8762E276E083E037
:103F500093E00E945D156FEA75E085E793E00E94AB
:103F60005D156DE375E087EE93E00E945D15BE017F
:103F700089E594E00E945D15E1EDF2E01183008394
:103F800080E690E0A0E0B0E082A793A7A4A7B5A741
:103F900087E199E3A0E0B0E086A797A7A0ABB1AB1B
:103FA0008FE59BE6A5EBBFE282839383A483B58371
:103FB00013A212A285E890E095A384A38BED90E074
:103FC000958F848F84E590E0978F868F21E630E08F
:103FD00031A320A3EFE9F2E0118300834AE150E02E
:103FE00060E070E042A753A764A775A740E459E0DA
:103FF00060E070E046A757A760AB71AB4FE35DEEA2
:1040000064EA70E3428353836483758313A212A22C
:1040100025E930E035A324A32DE330E0358F248F4C
:10402000978F868F87E690E091A380A3DF91CF9151
:104030001F910F91FF90EF90DF90CF90BF90AF90C6
:104040009F908F907F906F905F904F903F902F90B8
:104050000895789484B5826084BD84B5816084BD00
:1040600085B5826085BD85B5816085BD80916E0016
:10407000816080936E001092810080918100826047
:104080008093810080918100816080938100809184
:1040900080008160809380008091B1008460809373
:1040A000B1008091B00081608093B00080917A006F
:1040B000846080937A0080917A00826080937A0095
:1040C00080917A00816080937A0080917A00806884
:1040D00080937A001092C100E0911202F0911302D5
:1040E00082E08083E0910E02F0910F021082E09155
:1040F0001002F09111028FEC808310921A02E0916D
:104100001602F091170286E08083E0911402F0918C
:104110001502808180618083E0911402F091150284
:10412000808188608083E0911402F0911502808183
:1041300080688083E0911402F091150280818F7D68
:10414000808380916307909164074091610750914B
:104150006207209198062E7F209398061092A2065F
:104160001092A10621E030E03093B9062093B80602
:104170001092FD061092FC0620930B0710925E072A
:1041800010925F0710926007009711F489ED98E094
:104190009093A00680939F0650939E0640939D06A1
:1041A0008CE996E19093AA068093A9060E94CF0815
:1041B0000E94A80888E996E00E94C90C10920B079B
:1041C0001092BE061092BF061092C00688E996E0D3
:1041D0000E949E0CE0909B06F0909C06C090990671
:1041E000D0909A0610E000E0C701801B910B1816D2
:1041F00019060CF47BC28FEF8093BE068093BF0636
:104200008093C00682EC9BE09093FF068093FE06AD
:104210008091A1069091A206009741F090939E068E
:1042200080939D061092A2061092A10688E996E05E
:104230000E94C90C88E996E00E949E0C80919D0620
:1042400090919E069093A2068093A1068CE39BE03A
:1042500090939E0680939D0688E996E00E94C90C83
:1042600088E996E00E949E0C8091FC069091FD06E4
:104270008F50924009F488C0EFE0F2E0F093FD0621
:10428000E093FC06E491E0930D07E0E1F2E0E491B5
:10429000E0930E07E1E1F2E0E491E0930F07E2E141
:1042A000F2E0E491E0931007E3E1F2E0E491E093BF
:1042B0001107E4E1F2E0E491E0931207E5E1F2E0B6
:1042C000E491E0931307E6E1F2E0E491E093140750
:1042D000E7E1F2E0E491E0931507E8E1F2E0E49130
:1042E000E0931607E9E1F2E0E491E0931707EAE1D1
:1042F000F2E0E491E0931807EBE1F2E0E491E0935F
:104300001907ECE1F2E0E491E0931A07EDE1F2E045
:10431000E491E0931B07EEE1F2E0E491E0931C07E7
:10432000EFE1F2E0E491E0931D0781E10E94DC08F7
:1043300090931F0780931E0783E10E94DC089093EF
:104340002107809320078091FC069091FD06892B20
:10435000D9F080911A078093280740911B0740935A
:10436000290790912707992379F0913009F0E1C14D
:1043700090911C07891714F49093280780911D07CA
:10438000841714F480932907CFEFC093BE06C0931F
:10439000BF06C093C00683E093E00E942A141092E7
:1043A0006607109265078FE190E09093680780930D
:1043B0006707C093BE06C093BF06C093C006C093F4
:1043C000AF06C093B006C093B1061092AC0610922F
:1043D000AB068EE190E09093AE068093AD0600E8C8
:1043E00010E01093B3060093B2061092B506109237
:1043F000B40688E996E00E94280C85E793E00E94C5
:104400002A1410926607109265078FE390E090934C
:10441000680780936707C093BE06C093BF06C0932A
:10442000C006C093AF06C093B006C093B106109209
:10443000AC061092AB069093AE068093AD06109337
:10444000B3060093B2061092B5061092B40688E93E
:1044500096E00E94280C87EE93E00E942A141092A6
:1044600066071092650780E690E090936807809356
:104470006707C093BE06C093BF06C093C006C09333
:10448000AF06C093B006C093B1061092AC0610926E
:10449000AB069093AE068093AD061093B3060093DF
:1044A000B2061092B5061092B40688E996E00E9412
:1044B000280C89E594E00E942A1480916707909166
:1044C00068070E961092660710926507909368072A
:1044D00080936707C093BE06C093BF06C093C00613
:1044E000C093AF06C093B006C093B1061092AC065D
:1044F0001092AB069093AE068093AD061093B30670
:104500000093B2061092B5061092B40688E996E0C0
:104510000E94280C109266071092650781E890E0CF
:104520009093680780936707C093BE06C093BF0649
:10453000C093C006C093AF06C093B006C093B10647
:104540001092AC061092AB069093AE068093AD0627
:104550001093B3060093B2061092B5061092B406FB
:1045600088E996E00E94280CE091D102F091D202F5
:104570008091F1029091EF022091ED0222A793A782
:1045800084A78091F5029091F602DF01AF52BF4FF0
:104590002091F3023091F40211963C932E931296DF
:1045A0008D939C9366E471E0CF010E941B1480916F
:1045B000D1029091D202FC01EF52FF4F2081318154
:1045C0003093F8022093F7028D529F4FFC018081B7
:1045D00091819093FA028093F902E0919F02F09109
:1045E000A0028091BF029091BD022091BB0222A740
:1045F00093A784A78091C3029091C402DF01AF52B8
:10460000BF4F2091C1023091C20211963C932E936C
:1046100012968D939C936BE471E0CF010E941B1462
:1046200080919F029091A002FC01EF52FF4F2081E8
:1046300031813093C6022093C5028D529F4FFC01F9
:10464000808191819093C8028093C7020E940A0AD8
:104650004B015C0188EEC82E83E0D82EE12CF12CB2
:104660000E940A0A681979098A099B09683E734001
:1046700081059105A8F3F1E0CF1AD108E108F1080E
:1046800028EE820E23E0921EA11CB11CC114D1049D
:10469000E104F10429F710927D0110927C0110923F
:1046A0008101109280010E94EC098FE299E09093C1
:1046B000A9018093A80180E399E09093AD018093D4
:1046C000AC0188E08093BA0088EE97E190937F0177
:1046D00080937E0100E010E001151105E9F30E94CE
:1046E000990A8823C9F30E940000F6CF8091BE0684
:1046F0008093AF068091BF068093B0068091C0067C
:104700008093B1061092AC061092AB061093AE06E1
:104710000093AD06D092B306C092B2061092B506D1
:104720001092B40688E996E00E94280C0F5F1F4F94
:104730005BCD3091170720911907082E000C990BBB
:10474000622F022E000C770B630F711D37FD7A95D7
:10475000861797071CF4320F3093280724170CF0A4
:1047600013CE2093290710CE89E594E00E94E0142F
:1047700087EE93E00E94E01485E793E00E94E01446
:1047800083E093E00E94E0148BEC94E00E94E0143C
:104790008DE395E00E94E0148FEA95E00E94E0141A
:1047A00082E296E00C94E014FC0188279927E894B3
:1047B00021912032E9F3293010F02E30C8F32B324A
:1047C00041F02D3239F4689404C00E94F223820F24
:1047D000911D219120532A30C0F31EF490958195AC
:1047E0009F4F08957AE0979F902D879F802D910D80
:1047F00011240895E89409C097FB3EF490958095A4
:10480000709561957F4F8F4F9F4F9923A9F0F92F96
:1048100096E9BB279395F695879577956795B79514
:10482000F111F8CFFAF4BB0F11F460FF1BC06F5FFA
:104830007F4F8F4F9F4F16C0882311F096E911C00C
:10484000772321F09EE8872F762F05C0662371F02D
:1048500096E8862F70E060E02AF09A95660F771F41
:10486000881FDAF7880F9695879597F908950E9423
:104870004A240C94BB240E94AD2438F00E94B42436
:1048800020F0952311F00C94A4240C94AA24112454
:104890000C94EF240E94CC2470F3959FC1F3950FE4
:1048A00050E0551F629FF001729FBB27F00DB11DB4
:1048B000639FAA27F00DB11DAA1F649F6627B00D44
:1048C000A11D661F829F2227B00DA11D621F739F2D
:1048D000B00DA11D621F839FA00D611D221F749F3B
:1048E0003327A00D611D231F849F600D211D822F82
:1048F000762F6A2F11249F5750409AF0F1F08823A9
:104900004AF0EE0FFF1FBB1F661F771F881F9150D5
:104910005040A9F79E3F510580F00C94A4240C94BC
:10492000EF245F3FE4F3983ED4F38695779567953F
:10493000B795F795E7959F5FC1F7FE2B880F911DFF
:104940009695879597F9089597F99F6780E870E0A5
:1049500060E008959FEF80EC089500240A941616F5
:10496000170618060906089500240A94121613065D
:10497000140605060895092E0394000C11F48823EB
:1049800052F0BB0F40F4BF2B11F460FF04C06F5F07
:104990007F4F8F4F9F4F089557FD9058440F551FDD
:1049A00059F05F3F71F04795880F97FB991F61F0B1
:1049B0009F3F79F087950895121613061406551F28
:1049C000F2CF4695F1DF08C0161617061806991F94
:1049D000F1CF86957105610508940895E894BB2789
:1049E00066277727CB0197F90895052E97FB1EF4CC
:1049F00000940E940C2557FD07D00E94562507FC05
:104A000003D04EF40C940C2550954095309521958B
:104A10003F4F4F4F5F4F08959095809570956195EA
:104A20007F4F8F4F9F4F08950E947825A59F900D2F
:104A3000B49F900DA49F800D911D112408952F9275
:104A40003F924F925F926F927F928F929F92AF921E
:104A5000BF92CF92DF92EF92FF920F931F93CF936B
:104A6000DF93CDB7DEB7CA1BDB0B0FB6F894DEBF02
:104A70000FBECDBF09942A88398848885F846E8428
:104A80007D848C849B84AA84B984C884DF80EE8072
:104A9000FD800C811B81AA81B981CE0FD11D0FB67B
:104AA000F894DEBF0FBECDBFED010895A1E21A2E2E
:104AB000AA1BBB1BFD010DC0AA1FBB1FEE1FFF1FC2
:104AC000A217B307E407F50720F0A21BB30BE40B12
:104AD000F50B661F771F881F991F1A9469F7609559
:104AE0007095809590959B01AC01BD01CF01089513
:104AF000A29FB001B39FC001A39F700D811D11241F
:104B0000911DB29F700D811D1124911D0895505863
:104B1000BB27AA270E949F250C94BB240E94AD248A
:104B200038F00E94B42420F039F49F3F19F426F4A1
:104B30000C94AA240EF4E095E7FB0C94A424E92F2E
:104B40000E94CC2458F3BA176207730784079507AD
:104B500020F079F4A6F50C94EE240EF4E0950B2EDB
:104B6000BA2FA02D0B01B90190010C01CA01A001BF
:104B70001124FF27591B99F0593F50F4503E68F11A
:104B80001A16F040A22F232F342F4427585FF3CF5B
:104B9000469537952795A795F0405395C9F77EF42C
:104BA0001F16BA0B620B730B840BBAF09150A1F075
:104BB000FF0FBB1F661F771F881FC2F70EC0BA0FFB
:104BC000621F731F841F48F4879577956795B79583
:104BD000F7959E3F08F0B0CF9395880F08F099277E
:104BE000EE0F9795879508950E9408260C94BB2494
:104BF0000E94B42458F00E94AD2440F029F45F3F95
:104C000029F00C94A42451110C94EF240C94AA24A0
:104C10000E94CC2468F39923B1F3552391F3951B9B
:104C2000550BBB27AA2762177307840738F09F5FCD
:104C30005F4F220F331F441FAA1FA9F335D00E2E3A
:104C40003AF0E0E832D091505040E695001CCAF7A7
:104C50002BD0FE2F29D0660F771F881FBB1F26176A
:104C600037074807AB07B0E809F0BB0B802DBF0141
:104C7000FF2793585F4F3AF09E3F510578F00C9410
:104C8000A4240C94EF245F3FE4F3983ED4F386957C
:104C900077956795B795F7959F5FC9F7880F911D31
:104CA0009695879597F90895E1E0660F771F881F1D
:104CB000BB1F621773078407BA0720F0621B730BD0
:104CC000840BBA0BEE1F88F7E09508950E946D26BD
:104CD0006894B1110C94EF2408950E94D42488F0B4
:104CE0009F5798F0B92F9927B751B0F0E1F0660FB0
:104CF000771F881F991F1AF0BA95C9F714C0B130F1
:104D000091F00E94EE24B1E008950C94EE24672FF8
:104D1000782F8827B85F39F0B93FCCF3869577951F
:104D20006795B395D9F73EF4909580957095619508
:104D30007F4F8F4F9F4F0895FA01EE0FFF1F309660
:104D400021053105A1F16115710561F48038BFE3DA
:104D50009B0749F168949038810561F08038BFEF76
:104D60009B0741F099234AF5FF3FE10531052105F5
:104D700019F1E8940894E795D901AA2329F4AB2FF7
:104D8000BE2FF85FD0F310C0FF5F70F4A695E0F778
:104D9000F73950F019F0FF3A38F49F779F930DD010
:104DA0000F9007FC9058089546F00C94AA2460E0F8
:104DB00070E080E89FE308954FE79F775F934F93FC
:104DC0003F932F930E9497272F913F914F915F918F
:104DD0000E9437240C94F42629F416F00C94A42491
:104DE0000C94EE240C94AA240E94D424A8F39638A0
:104DF000A0F707F80F92E8942BE33AEA48EB5FE755
:104E00000E944D240F920F920F924DB75EB70F92F2
:104E10000E94DF27E8E6F0E00E9426274F915F918D
:104E2000EF91FF91E595EE1FFF1F49F0FE57E068F7
:104E30004427EE0F441FFA95E1F74195550B0E9468
:104E400059270F9007FE0C944D270895DF93CF93B9
:104E50001F930F93FF92EF92DF927B018C01689476
:104E600006C0DA2EEF010E944A24FE01E894A591C3
:104E70002591359145915591A6F3EF010E949F250B
:104E8000FE019701A801DA9469F7DF90EF90FF9097
:104E90000F911F91CF91DF9108959B01AC0160E0CC
:104EA00070E080E89FE30C94F4250C94A4240C9407
:104EB00013280E94D424D8F39923C9F3940F511DC9
:104EC000A3F39150504094F059F0882332F0660FCC
:104ED000771F881F91505040C1F79E3F51052CF716
:104EE000880F911D9695879597F908955F3FACF0CF
:104EF000983E9CF0BB27869577956795B79508F403
:104F0000B1609395C1F7BB0F58F711F460FFE8CF7C
:104F10006F5F7F4F8F4F9F4FE3CF0C94EF2416F0BE
:104F20000C9413280C94AA2468940C94A4240E9432
:104F3000D424A8F39923C1F3AEF3DF93CF931F9347
:104F40000F93FF92C92FDD2788232AF02197660F40
:104F5000771F881FDAF720E030E040E85FEB9FE33F
:104F6000883920F0803E38F021968F770E9488257E
:104F7000E0E9F0E004C00E948825EDEBF0E00E943B
:104F800026278B01BE01EC01FB2E6F577109759529
:104F9000771F880B990B0E94FC2328E132E741E33D
:104FA0005FE30E944A24AF2D9801AE01FF900F915C
:104FB0001F91CF91DF910E949F250C94BB24FA0191
:104FC000DC01AA0FBB1F9B01AC01BF5728F42227AD
:104FD00033274427507820C0B75190F4AB2F0024DA
:104FE000469537952795011CA395D2F3002071F0C3
:104FF000220F331F441FB395DAF30ED00C9487258C
:1050000061307105A0E88A07B94630F49B01AC0114
:105010006627772788279078309621F02083318380
:105020004283538308959F3F31F0915020F4879538
:1050300077956795B795880F911D9695879597F900
:10504000089597FB072E16F4009407D077FD09D03A
:105050000E94422807FC05D03EF4909581959F4F11
:105060000895709561957F4F0895EE0FFF1F05908D
:10507000F491E02D09940E947825B7FF0895821BD2
:10508000930B0895AA1BBB1B51E107C0AA1FBB1FAE
:10509000A617B70710F0A61BB70B881F991F5A95C4
:1050A000A9F780959095BC01CD0108950F931F93AA
:1050B000CF93DF938230910510F482E090E0E0918D
:1050C0006C07F0916D0730E020E0B0E0A0E0309791
:1050D00099F42115310509F44AC0281B390B2430F5
:1050E0003105D8F58A819B816115710589F1FB0134
:1050F00093838283FE0111C040815181028113811B
:1051000048175907E0F04817590799F4109761F0CC
:1051100012960C93129713961C933296CF01DF913F
:10512000CF911F910F91089500936C0710936D0715
:10513000F4CF2115310551F04217530738F0A9017A
:10514000DB019A01BD01DF01F801C1CFEF01F9CF09
:1051500090936D0780936C07CDCFFE01E20FF31F94
:10516000819391932250310939832883D7CF20919D
:105170006A0730916B07232B41F420910201309193
:10518000030130936B0720936A072091000130914F
:1051900001012115310541F42DB73EB740910401BD
:1051A00050910501241B350BE0916A07F0916B07C4
:1051B000E217F307A0F42E1B3F0B2817390778F0EE
:1051C000AC014E5F5F4F2417350748F04E0F5F1F4D
:1051D00050936B0740936A07819391939FCFF0E0C0
:1051E000E0E09CCFCF93DF930097E9F0FC0132978A
:1051F00013821282A0916C07B0916D07ED0130E02F
:1052000020E01097A1F420813181820F931F20911B
:105210006A0730916B072817390709F061C0F093CE
:105220006B07E0936A07DF91CF910895EA01CE17EB
:10523000DF07E8F54A815B819E0141155105B1F711
:10524000E901FB83EA8349915991C40FD51FEC17FB
:10525000FD0761F4808191810296840F951FE90119
:1052600099838883828193819B838A83F0E0E0E045
:1052700012968D919C9113970097B9F52D913C91C1
:105280001197CD010296820F931F20916A073091EA
:105290006B072817390739F6309751F510926D07CB
:1052A00010926C07B0936B07A0936A07BCCFD383AF
:1052B000C28340815181840F951FC817D90761F4BB
:1052C0004E5F5F4F88819981480F591F51834083FA
:1052D0008A819B81938382832115310509F0B0CFA8
:1052E000F0936D07E0936C079ECFFD01DC01C0CF0A
:1052F00013821282D7CFB0E0A0E0E1E8F9E20C948B
:1053000021258C01009751F4CB010E9456288C0175
:10531000C801CDB7DEB7E0E10C943D25FC01E60FF6
:10532000F71F9C0122503109E217F30708F49DC0D2
:10533000D901CD91DC911197C617D70798F0C530E8
:10534000D10530F3CE0104978617970708F3C61BE3
:10535000D70B2297C193D1936D937C93CF010E9479
:10536000F228D6CF5B01AC1ABD0A4C018C0E9D1EF3
:10537000A0916C07B0916D07512C412CF12CE12CC0
:10538000109731F580916A0790916B078815990500
:1053900009F05CC04616570608F058C0809100011D
:1053A00090910101009741F48DB79EB7409104019F
:1053B00050910501841B950BE817F90708F055C0BB
:1053C000F0936B07E0936A07F90171836083A0CFC4
:1053D0008D919C91119712966C90129713967C90D8
:1053E0001397A815B90559F56C0142E0C40ED11CFC
:1053F000CA14DB0420F1AC014A195B09DA011296E8
:10540000159780F06282738251834083D9016D9336
:105410007C93E114F10471F0D7011396FC93EE93A1
:10542000129776CF22968C0F9D1FF901918380836E
:10543000F301EFCFF0936D07E0936C0769CF481647
:10544000590608F42C017D01D3019ACFCB010E94AB
:1054500056287C01009749F0AE01B8010E94382A15
:10546000C8010E94F228870153CF10E000E050CF1E
:10547000FB01DC0102C001900D9241505040D8F771
:105480000895FB01DC0101900D920020E1F70895E1
:1054900018E0CDE7D8E004C0FE010E94352821962F
:0A54A000CE37D107C9F7F894FFCF0B
:1054AA0000006E078000000000008F0984091814AC
:1054BA005A097D096A095B0900000000C50A2F0A1A
:1054CA005C0A120B8D0A6B0A7F0A00000000B312F5
:1054DA002F0A181417144652512000202020206445
:1054EA006220000D0A004C50462000485046200019
:00000001FF
